{
  "contractName": "GreenEnergyProjectVoting",
  "abi": [
    {
      "inputs": [
        {
          "internalType": "contract GreenEnergyToken",
          "name": "_token",
          "type": "address"
        }
      ],
      "stateMutability": "nonpayable",
      "type": "constructor"
    },
    {
      "inputs": [
        {
          "internalType": "address",
          "name": "owner",
          "type": "address"
        }
      ],
      "name": "OwnableInvalidOwner",
      "type": "error"
    },
    {
      "inputs": [
        {
          "internalType": "address",
          "name": "account",
          "type": "address"
        }
      ],
      "name": "OwnableUnauthorizedAccount",
      "type": "error"
    },
    {
      "anonymous": false,
      "inputs": [
        {
          "indexed": false,
          "internalType": "uint256",
          "name": "amount",
          "type": "uint256"
        }
      ],
      "name": "DividendsDistributed",
      "type": "event"
    },
    {
      "anonymous": false,
      "inputs": [
        {
          "indexed": true,
          "internalType": "address",
          "name": "previousOwner",
          "type": "address"
        },
        {
          "indexed": true,
          "internalType": "address",
          "name": "newOwner",
          "type": "address"
        }
      ],
      "name": "OwnershipTransferred",
      "type": "event"
    },
    {
      "anonymous": false,
      "inputs": [
        {
          "indexed": false,
          "internalType": "uint256",
          "name": "projectId",
          "type": "uint256"
        },
        {
          "indexed": false,
          "internalType": "string",
          "name": "description",
          "type": "string"
        }
      ],
      "name": "ProjectAdded",
      "type": "event"
    },
    {
      "anonymous": false,
      "inputs": [
        {
          "indexed": false,
          "internalType": "uint256",
          "name": "projectId",
          "type": "uint256"
        },
        {
          "indexed": false,
          "internalType": "uint256",
          "name": "amount",
          "type": "uint256"
        }
      ],
      "name": "ProjectFunded",
      "type": "event"
    },
    {
      "anonymous": false,
      "inputs": [
        {
          "indexed": false,
          "internalType": "address",
          "name": "purchaser",
          "type": "address"
        }
      ],
      "name": "PurchaserAdded",
      "type": "event"
    },
    {
      "anonymous": false,
      "inputs": [
        {
          "indexed": true,
          "internalType": "address",
          "name": "voter",
          "type": "address"
        },
        {
          "indexed": true,
          "internalType": "uint256",
          "name": "projectId",
          "type": "uint256"
        }
      ],
      "name": "Voted",
      "type": "event"
    },
    {
      "stateMutability": "payable",
      "type": "fallback",
      "payable": true
    },
    {
      "inputs": [
        {
          "internalType": "address",
          "name": "",
          "type": "address"
        }
      ],
      "name": "claimedDividends",
      "outputs": [
        {
          "internalType": "uint256",
          "name": "",
          "type": "uint256"
        }
      ],
      "stateMutability": "view",
      "type": "function",
      "constant": true
    },
    {
      "inputs": [
        {
          "internalType": "address",
          "name": "",
          "type": "address"
        }
      ],
      "name": "dividends",
      "outputs": [
        {
          "internalType": "uint256",
          "name": "",
          "type": "uint256"
        }
      ],
      "stateMutability": "view",
      "type": "function",
      "constant": true
    },
    {
      "inputs": [],
      "name": "owner",
      "outputs": [
        {
          "internalType": "address",
          "name": "",
          "type": "address"
        }
      ],
      "stateMutability": "view",
      "type": "function",
      "constant": true
    },
    {
      "inputs": [
        {
          "internalType": "uint256",
          "name": "",
          "type": "uint256"
        }
      ],
      "name": "projects",
      "outputs": [
        {
          "internalType": "string",
          "name": "name",
          "type": "string"
        },
        {
          "internalType": "string",
          "name": "description",
          "type": "string"
        },
        {
          "internalType": "uint256",
          "name": "voteCount",
          "type": "uint256"
        },
        {
          "internalType": "bool",
          "name": "funded",
          "type": "bool"
        }
      ],
      "stateMutability": "view",
      "type": "function",
      "constant": true
    },
    {
      "inputs": [
        {
          "internalType": "uint256",
          "name": "",
          "type": "uint256"
        }
      ],
      "name": "purchasers",
      "outputs": [
        {
          "internalType": "address",
          "name": "",
          "type": "address"
        }
      ],
      "stateMutability": "view",
      "type": "function",
      "constant": true
    },
    {
      "inputs": [],
      "name": "renounceOwnership",
      "outputs": [],
      "stateMutability": "nonpayable",
      "type": "function"
    },
    {
      "inputs": [],
      "name": "token",
      "outputs": [
        {
          "internalType": "contract GreenEnergyToken",
          "name": "",
          "type": "address"
        }
      ],
      "stateMutability": "view",
      "type": "function",
      "constant": true
    },
    {
      "inputs": [],
      "name": "totalDividends",
      "outputs": [
        {
          "internalType": "uint256",
          "name": "",
          "type": "uint256"
        }
      ],
      "stateMutability": "view",
      "type": "function",
      "constant": true
    },
    {
      "inputs": [
        {
          "internalType": "address",
          "name": "newOwner",
          "type": "address"
        }
      ],
      "name": "transferOwnership",
      "outputs": [],
      "stateMutability": "nonpayable",
      "type": "function"
    },
    {
      "inputs": [
        {
          "internalType": "address",
          "name": "",
          "type": "address"
        },
        {
          "internalType": "uint256",
          "name": "",
          "type": "uint256"
        }
      ],
      "name": "votes",
      "outputs": [
        {
          "internalType": "bool",
          "name": "",
          "type": "bool"
        }
      ],
      "stateMutability": "view",
      "type": "function",
      "constant": true
    },
    {
      "stateMutability": "payable",
      "type": "receive",
      "payable": true
    },
    {
      "inputs": [
        {
          "internalType": "address",
          "name": "purchaser",
          "type": "address"
        }
      ],
      "name": "addPurchaser",
      "outputs": [],
      "stateMutability": "nonpayable",
      "type": "function"
    },
    {
      "inputs": [
        {
          "internalType": "string",
          "name": "name",
          "type": "string"
        },
        {
          "internalType": "string",
          "name": "description",
          "type": "string"
        }
      ],
      "name": "addProject",
      "outputs": [],
      "stateMutability": "nonpayable",
      "type": "function"
    },
    {
      "inputs": [
        {
          "internalType": "uint256",
          "name": "projectId",
          "type": "uint256"
        }
      ],
      "name": "vote",
      "outputs": [],
      "stateMutability": "nonpayable",
      "type": "function"
    },
    {
      "inputs": [
        {
          "internalType": "uint256",
          "name": "projectId",
          "type": "uint256"
        }
      ],
      "name": "fundProject",
      "outputs": [],
      "stateMutability": "payable",
      "type": "function",
      "payable": true
    },
    {
      "inputs": [],
      "name": "claimDividends",
      "outputs": [],
      "stateMutability": "nonpayable",
      "type": "function"
    },
    {
      "inputs": [],
      "name": "projectCount",
      "outputs": [
        {
          "internalType": "uint256",
          "name": "",
          "type": "uint256"
        }
      ],
      "stateMutability": "view",
      "type": "function",
      "constant": true
    },
    {
      "inputs": [
        {
          "internalType": "uint256",
          "name": "projectId",
          "type": "uint256"
        }
      ],
      "name": "getProject",
      "outputs": [
        {
          "internalType": "string",
          "name": "name",
          "type": "string"
        },
        {
          "internalType": "string",
          "name": "description",
          "type": "string"
        },
        {
          "internalType": "uint256",
          "name": "voteCount",
          "type": "uint256"
        },
        {
          "internalType": "bool",
          "name": "funded",
          "type": "bool"
        }
      ],
      "stateMutability": "view",
      "type": "function",
      "constant": true
    },
    {
      "inputs": [
        {
          "internalType": "address",
          "name": "user",
          "type": "address"
        }
      ],
      "name": "getDividend",
      "outputs": [
        {
          "internalType": "uint256",
          "name": "",
          "type": "uint256"
        }
      ],
      "stateMutability": "view",
      "type": "function",
      "constant": true
    }
  ],
  "bytecode": "0x608060405234801562000010575f80fd5b50604051620023e0380380620023e083398181016040528101906200003691906200023c565b335f73ffffffffffffffffffffffffffffffffffffffff168173ffffffffffffffffffffffffffffffffffffffff1603620000aa575f6040517f1e4fbdf7000000000000000000000000000000000000000000000000000000008152600401620000a191906200027d565b60405180910390fd5b620000bb816200010360201b60201c565b508060015f6101000a81548173ffffffffffffffffffffffffffffffffffffffff021916908373ffffffffffffffffffffffffffffffffffffffff1602179055505062000298565b5f805f9054906101000a900473ffffffffffffffffffffffffffffffffffffffff169050815f806101000a81548173ffffffffffffffffffffffffffffffffffffffff021916908373ffffffffffffffffffffffffffffffffffffffff1602179055508173ffffffffffffffffffffffffffffffffffffffff168173ffffffffffffffffffffffffffffffffffffffff167f8be0079c531659141344cd1fd0a4f28419497f9722a3daafe3b4186f6b6457e060405160405180910390a35050565b5f80fd5b5f73ffffffffffffffffffffffffffffffffffffffff82169050919050565b5f620001f382620001c8565b9050919050565b5f6200020682620001e7565b9050919050565b6200021881620001fa565b811462000223575f80fd5b50565b5f8151905062000236816200020d565b92915050565b5f60208284031215620002545762000253620001c4565b5b5f620002638482850162000226565b91505092915050565b6200027781620001e7565b82525050565b5f602082019050620002925f8301846200026c565b92915050565b61213a80620002a65f395ff3fe60806040526004361061010c575f3560e01c80637dfb3383116100945780639f2524ee116100635780639f2524ee1461035a578063a0e1f42c14610396578063f0f3f2c8146103be578063f2fde38b146103fd578063fc0c546a1461042557610113565b80637dfb3383146102a25780638da5cb5b146102de578063980c308d14610308578063997664d71461033057610113565b806336fbad26116100db57806336fbad26146101f4578063668038e01461021e57806368306e43146102345780636c563abe14610270578063715018a61461028c57610113565b80630121b93f14610115578063107046bd1461013d57806312923b651461017c57806315dd42fc146101b857610113565b3661011357005b005b348015610120575f80fd5b5061013b60048036038101906101369190611539565b61044f565b005b348015610148575f80fd5b50610163600480360381019061015e9190611539565b6106f2565b6040516101739493929190611617565b60405180910390f35b348015610187575f80fd5b506101a2600480360381019061019d9190611539565b610845565b6040516101af91906116a7565b60405180910390f35b3480156101c3575f80fd5b506101de60048036038101906101d991906116ea565b610880565b6040516101eb9190611715565b60405180910390f35b3480156101ff575f80fd5b506102086108c6565b6040516102159190611715565b60405180910390f35b348015610229575f80fd5b506102326108d2565b005b34801561023f575f80fd5b5061025a600480360381019061025591906116ea565b610a31565b6040516102679190611715565b60405180910390f35b61028a60048036038101906102859190611539565b610a46565b005b348015610297575f80fd5b506102a0610bc7565b005b3480156102ad575f80fd5b506102c860048036038101906102c391906116ea565b610bda565b6040516102d59190611715565b60405180910390f35b3480156102e9575f80fd5b506102f2610bef565b6040516102ff91906116a7565b60405180910390f35b348015610313575f80fd5b5061032e6004803603810190610329919061185a565b610c16565b005b34801561033b575f80fd5b50610344610d0c565b6040516103519190611715565b60405180910390f35b348015610365575f80fd5b50610380600480360381019061037b91906118d0565b610d12565b60405161038d919061190e565b60405180910390f35b3480156103a1575f80fd5b506103bc60048036038101906103b791906116ea565b610d3c565b005b3480156103c9575f80fd5b506103e460048036038101906103df9190611539565b610e76565b6040516103f49493929190611617565b60405180910390f35b348015610408575f80fd5b50610423600480360381019061041e91906116ea565b611056565b005b348015610430575f80fd5b506104396110da565b6040516104469190611982565b60405180910390f35b6002805490508110610496576040517f08c379a000000000000000000000000000000000000000000000000000000000815260040161048d906119e5565b60405180910390fd5b60045f3373ffffffffffffffffffffffffffffffffffffffff1673ffffffffffffffffffffffffffffffffffffffff1681526020019081526020015f205f8281526020019081526020015f205f9054906101000a900460ff161561052f576040517f08c379a000000000000000000000000000000000000000000000000000000000815260040161052690611a4d565b60405180910390fd5b5f60015f9054906101000a900473ffffffffffffffffffffffffffffffffffffffff1673ffffffffffffffffffffffffffffffffffffffff166370a08231336040518263ffffffff1660e01b815260040161058a91906116a7565b602060405180830381865afa1580156105a5573d5f803e3d5ffd5b505050506040513d601f19601f820116820180604052508101906105c99190611a7f565b90505f811161060d576040517f08c379a000000000000000000000000000000000000000000000000000000000815260040161060490611af4565b60405180910390fd5b806002838154811061062257610621611b12565b5b905f5260205f2090600402016002015f82825461063f9190611b6c565b92505081905550600160045f3373ffffffffffffffffffffffffffffffffffffffff1673ffffffffffffffffffffffffffffffffffffffff1681526020019081526020015f205f8481526020019081526020015f205f6101000a81548160ff021916908315150217905550813373ffffffffffffffffffffffffffffffffffffffff167f4d99b957a2bc29a30ebd96a7be8e68fe50a3c701db28a91436490b7d53870ca460405160405180910390a35050565b60028181548110610701575f80fd5b905f5260205f2090600402015f91509050805f01805461072090611bcc565b80601f016020809104026020016040519081016040528092919081815260200182805461074c90611bcc565b80156107975780601f1061076e57610100808354040283529160200191610797565b820191905f5260205f20905b81548152906001019060200180831161077a57829003601f168201915b5050505050908060010180546107ac90611bcc565b80601f01602080910402602001604051908101604052809291908181526020018280546107d890611bcc565b80156108235780601f106107fa57610100808354040283529160200191610823565b820191905f5260205f20905b81548152906001019060200180831161080657829003601f168201915b505050505090806002015490806003015f9054906101000a900460ff16905084565b60038181548110610854575f80fd5b905f5260205f20015f915054906101000a900473ffffffffffffffffffffffffffffffffffffffff1681565b5f60075f8373ffffffffffffffffffffffffffffffffffffffff1673ffffffffffffffffffffffffffffffffffffffff1681526020019081526020015f20549050919050565b5f600280549050905090565b5f60055f3373ffffffffffffffffffffffffffffffffffffffff1673ffffffffffffffffffffffffffffffffffffffff1681526020019081526020015f205490505f8111610955576040517f08c379a000000000000000000000000000000000000000000000000000000000815260040161094c90611c46565b60405180910390fd5b5f60055f3373ffffffffffffffffffffffffffffffffffffffff1673ffffffffffffffffffffffffffffffffffffffff1681526020019081526020015f20819055508060075f3373ffffffffffffffffffffffffffffffffffffffff1673ffffffffffffffffffffffffffffffffffffffff1681526020019081526020015f205f8282546109e39190611b6c565b925050819055503373ffffffffffffffffffffffffffffffffffffffff166108fc8290811502906040515f60405180830381858888f19350505050158015610a2d573d5f803e3d5ffd5b5050565b6005602052805f5260405f205f915090505481565b610a4e6110ff565b6002805490508110610a95576040517f08c379a0000000000000000000000000000000000000000000000000000000008152600401610a8c906119e5565b60405180910390fd5b60028181548110610aa957610aa8611b12565b5b905f5260205f2090600402016003015f9054906101000a900460ff1615610b05576040517f08c379a0000000000000000000000000000000000000000000000000000000008152600401610afc90611cae565b60405180910390fd5b5f3411610b47576040517f08c379a0000000000000000000000000000000000000000000000000000000008152600401610b3e90611d16565b60405180910390fd5b600160028281548110610b5d57610b5c611b12565b5b905f5260205f2090600402016003015f6101000a81548160ff021916908315150217905550610b8b34611186565b7f26130d0cd3f6aa101d05e4a4f2ff016fd5b934363d17bdd03ff5dc03ec5934a98134604051610bbc929190611d34565b60405180910390a150565b610bcf6110ff565b610bd85f6112cd565b565b6007602052805f5260405f205f915090505481565b5f805f9054906101000a900473ffffffffffffffffffffffffffffffffffffffff16905090565b610c1e6110ff565b600260405180608001604052808481526020018381526020015f81526020015f1515815250908060018154018082558091505060019003905f5260205f2090600402015f909190919091505f820151815f019081610c7c9190611eef565b506020820151816001019081610c929190611eef565b50604082015181600201556060820151816003015f6101000a81548160ff02191690831515021790555050507f0855be7ab46e0ae9e0d9c2f3567377c0a577a8c726b7c88615644d282a1fc2916001600280549050610cf19190611fbe565b82604051610d00929190611ff1565b60405180910390a15050565b60065481565b6004602052815f5260405f20602052805f5260405f205f915091509054906101000a900460ff1681565b610d446110ff565b5f5b600380549050811015610dda578173ffffffffffffffffffffffffffffffffffffffff1660038281548110610d7e57610d7d611b12565b5b905f5260205f20015f9054906101000a900473ffffffffffffffffffffffffffffffffffffffff1673ffffffffffffffffffffffffffffffffffffffff1603610dc75750610e73565b8080610dd29061201f565b915050610d46565b50600381908060018154018082558091505060019003905f5260205f20015f9091909190916101000a81548173ffffffffffffffffffffffffffffffffffffffff021916908373ffffffffffffffffffffffffffffffffffffffff1602179055507f62f876d6cdfd17f4e262339b065049a5d83fade9386d6aee53b5a39db1835b2581604051610e6a91906116a7565b60405180910390a15b50565b6060805f806002805490508510610ec2576040517f08c379a0000000000000000000000000000000000000000000000000000000008152600401610eb9906119e5565b60405180910390fd5b5f60028681548110610ed757610ed6611b12565b5b905f5260205f2090600402016040518060800160405290815f82018054610efd90611bcc565b80601f0160208091040260200160405190810160405280929190818152602001828054610f2990611bcc565b8015610f745780601f10610f4b57610100808354040283529160200191610f74565b820191905f5260205f20905b815481529060010190602001808311610f5757829003601f168201915b50505050508152602001600182018054610f8d90611bcc565b80601f0160208091040260200160405190810160405280929190818152602001828054610fb990611bcc565b80156110045780601f10610fdb57610100808354040283529160200191611004565b820191905f5260205f20905b815481529060010190602001808311610fe757829003601f168201915b5050505050815260200160028201548152602001600382015f9054906101000a900460ff1615151515815250509050805f01518160200151826040015183606001519450945094509450509193509193565b61105e6110ff565b5f73ffffffffffffffffffffffffffffffffffffffff168173ffffffffffffffffffffffffffffffffffffffff16036110ce575f6040517f1e4fbdf70000000000000000000000000000000000000000000000000000000081526004016110c591906116a7565b60405180910390fd5b6110d7816112cd565b50565b60015f9054906101000a900473ffffffffffffffffffffffffffffffffffffffff1681565b61110761138e565b73ffffffffffffffffffffffffffffffffffffffff16611125610bef565b73ffffffffffffffffffffffffffffffffffffffff16146111845761114861138e565b6040517f118cdaa700000000000000000000000000000000000000000000000000000000815260040161117b91906116a7565b60405180910390fd5b565b8060065f8282546111979190611b6c565b925050819055505f5b600380549050811015611292576111f2600382815481106111c4576111c3611b12565b5b905f5260205f20015f9054906101000a900473ffffffffffffffffffffffffffffffffffffffff1683611395565b60055f6003848154811061120957611208611b12565b5b905f5260205f20015f9054906101000a900473ffffffffffffffffffffffffffffffffffffffff1673ffffffffffffffffffffffffffffffffffffffff1673ffffffffffffffffffffffffffffffffffffffff1681526020019081526020015f205f8282546112789190611b6c565b92505081905550808061128a9061201f565b9150506111a0565b507f051019b59d3b24249903e46fd05b6def7f293fc3de54eca64b3d32743f27fc8e816040516112c29190611715565b60405180910390a150565b5f805f9054906101000a900473ffffffffffffffffffffffffffffffffffffffff169050815f806101000a81548173ffffffffffffffffffffffffffffffffffffffff021916908373ffffffffffffffffffffffffffffffffffffffff1602179055508173ffffffffffffffffffffffffffffffffffffffff168173ffffffffffffffffffffffffffffffffffffffff167f8be0079c531659141344cd1fd0a4f28419497f9722a3daafe3b4186f6b6457e060405160405180910390a35050565b5f33905090565b5f8060015f9054906101000a900473ffffffffffffffffffffffffffffffffffffffff1673ffffffffffffffffffffffffffffffffffffffff166318160ddd6040518163ffffffff1660e01b8152600401602060405180830381865afa158015611401573d5f803e3d5ffd5b505050506040513d601f19601f820116820180604052508101906114259190611a7f565b90505f8103611437575f9150506114ef565b5f60015f9054906101000a900473ffffffffffffffffffffffffffffffffffffffff1673ffffffffffffffffffffffffffffffffffffffff166370a08231866040518263ffffffff1660e01b815260040161149291906116a7565b602060405180830381865afa1580156114ad573d5f803e3d5ffd5b505050506040513d601f19601f820116820180604052508101906114d19190611a7f565b90508181856114e09190612066565b6114ea91906120d4565b925050505b92915050565b5f604051905090565b5f80fd5b5f80fd5b5f819050919050565b61151881611506565b8114611522575f80fd5b50565b5f813590506115338161150f565b92915050565b5f6020828403121561154e5761154d6114fe565b5b5f61155b84828501611525565b91505092915050565b5f81519050919050565b5f82825260208201905092915050565b5f5b8381101561159b578082015181840152602081019050611580565b5f8484015250505050565b5f601f19601f8301169050919050565b5f6115c082611564565b6115ca818561156e565b93506115da81856020860161157e565b6115e3816115a6565b840191505092915050565b6115f781611506565b82525050565b5f8115159050919050565b611611816115fd565b82525050565b5f6080820190508181035f83015261162f81876115b6565b9050818103602083015261164381866115b6565b905061165260408301856115ee565b61165f6060830184611608565b95945050505050565b5f73ffffffffffffffffffffffffffffffffffffffff82169050919050565b5f61169182611668565b9050919050565b6116a181611687565b82525050565b5f6020820190506116ba5f830184611698565b92915050565b6116c981611687565b81146116d3575f80fd5b50565b5f813590506116e4816116c0565b92915050565b5f602082840312156116ff576116fe6114fe565b5b5f61170c848285016116d6565b91505092915050565b5f6020820190506117285f8301846115ee565b92915050565b5f80fd5b5f80fd5b7f4e487b71000000000000000000000000000000000000000000000000000000005f52604160045260245ffd5b61176c826115a6565b810181811067ffffffffffffffff8211171561178b5761178a611736565b5b80604052505050565b5f61179d6114f5565b90506117a98282611763565b919050565b5f67ffffffffffffffff8211156117c8576117c7611736565b5b6117d1826115a6565b9050602081019050919050565b828183375f83830152505050565b5f6117fe6117f9846117ae565b611794565b90508281526020810184848401111561181a57611819611732565b5b6118258482856117de565b509392505050565b5f82601f8301126118415761184061172e565b5b81356118518482602086016117ec565b91505092915050565b5f80604083850312156118705761186f6114fe565b5b5f83013567ffffffffffffffff81111561188d5761188c611502565b5b6118998582860161182d565b925050602083013567ffffffffffffffff8111156118ba576118b9611502565b5b6118c68582860161182d565b9150509250929050565b5f80604083850312156118e6576118e56114fe565b5b5f6118f3858286016116d6565b925050602061190485828601611525565b9150509250929050565b5f6020820190506119215f830184611608565b92915050565b5f819050919050565b5f61194a61194561194084611668565b611927565b611668565b9050919050565b5f61195b82611930565b9050919050565b5f61196c82611951565b9050919050565b61197c81611962565b82525050565b5f6020820190506119955f830184611973565b92915050565b7f50726f6a65637420646f6573206e6f74206578697374000000000000000000005f82015250565b5f6119cf60168361156e565b91506119da8261199b565b602082019050919050565b5f6020820190508181035f8301526119fc816119c3565b9050919050565b7f416c726561647920766f74656420666f7220746869732070726f6a65637400005f82015250565b5f611a37601e8361156e565b9150611a4282611a03565b602082019050919050565b5f6020820190508181035f830152611a6481611a2b565b9050919050565b5f81519050611a798161150f565b92915050565b5f60208284031215611a9457611a936114fe565b5b5f611aa184828501611a6b565b91505092915050565b7f4e6f20746f6b656e7320746f20766f74652077697468000000000000000000005f82015250565b5f611ade60168361156e565b9150611ae982611aaa565b602082019050919050565b5f6020820190508181035f830152611b0b81611ad2565b9050919050565b7f4e487b71000000000000000000000000000000000000000000000000000000005f52603260045260245ffd5b7f4e487b71000000000000000000000000000000000000000000000000000000005f52601160045260245ffd5b5f611b7682611506565b9150611b8183611506565b9250828201905080821115611b9957611b98611b3f565b5b92915050565b7f4e487b71000000000000000000000000000000000000000000000000000000005f52602260045260245ffd5b5f6002820490506001821680611be357607f821691505b602082108103611bf657611bf5611b9f565b5b50919050565b7f4e6f206469766964656e647320746f20636c61696d00000000000000000000005f82015250565b5f611c3060158361156e565b9150611c3b82611bfc565b602082019050919050565b5f6020820190508181035f830152611c5d81611c24565b9050919050565b7f50726f6a65637420616c72656164792066756e646564000000000000000000005f82015250565b5f611c9860168361156e565b9150611ca382611c64565b602082019050919050565b5f6020820190508181035f830152611cc581611c8c565b9050919050565b7f4e6f2045746865722073656e74000000000000000000000000000000000000005f82015250565b5f611d00600d8361156e565b9150611d0b82611ccc565b602082019050919050565b5f6020820190508181035f830152611d2d81611cf4565b9050919050565b5f604082019050611d475f8301856115ee565b611d5460208301846115ee565b9392505050565b5f819050815f5260205f209050919050565b5f6020601f8301049050919050565b5f82821b905092915050565b5f60088302611db77fffffffffffffffffffffffffffffffffffffffffffffffffffffffffffffffff82611d7c565b611dc18683611d7c565b95508019841693508086168417925050509392505050565b5f611df3611dee611de984611506565b611927565b611506565b9050919050565b5f819050919050565b611e0c83611dd9565b611e20611e1882611dfa565b848454611d88565b825550505050565b5f90565b611e34611e28565b611e3f818484611e03565b505050565b5b81811015611e6257611e575f82611e2c565b600181019050611e45565b5050565b601f821115611ea757611e7881611d5b565b611e8184611d6d565b81016020851015611e90578190505b611ea4611e9c85611d6d565b830182611e44565b50505b505050565b5f82821c905092915050565b5f611ec75f1984600802611eac565b1980831691505092915050565b5f611edf8383611eb8565b9150826002028217905092915050565b611ef882611564565b67ffffffffffffffff811115611f1157611f10611736565b5b611f1b8254611bcc565b611f26828285611e66565b5f60209050601f831160018114611f57575f8415611f45578287015190505b611f4f8582611ed4565b865550611fb6565b601f198416611f6586611d5b565b5f5b82811015611f8c57848901518255600182019150602085019450602081019050611f67565b86831015611fa95784890151611fa5601f891682611eb8565b8355505b6001600288020188555050505b505050505050565b5f611fc882611506565b9150611fd383611506565b9250828203905081811115611feb57611fea611b3f565b5b92915050565b5f6040820190506120045f8301856115ee565b818103602083015261201681846115b6565b90509392505050565b5f61202982611506565b91507fffffffffffffffffffffffffffffffffffffffffffffffffffffffffffffffff820361205b5761205a611b3f565b5b600182019050919050565b5f61207082611506565b915061207b83611506565b925082820261208981611506565b915082820484148315176120a05761209f611b3f565b5b5092915050565b7f4e487b71000000000000000000000000000000000000000000000000000000005f52601260045260245ffd5b5f6120de82611506565b91506120e983611506565b9250826120f9576120f86120a7565b5b82820490509291505056fea264697066735822122036cf7bf6b54051008abb50c9765a9e827d98ba694886c8ec018b5d0b3dd6ae0564736f6c63430008140033",
  "immutableReferences": {},
  "source": "// SPDX-License-Identifier: MIT\r\npragma solidity ^0.8.0;\r\n\r\nimport \"./GreenEnergyToken.sol\";\r\nimport \"@openzeppelin/contracts/access/Ownable.sol\";\r\n\r\ncontract GreenEnergyProjectVoting is Ownable {\r\n    GreenEnergyToken public token;\r\n\r\n    struct Project {\r\n        string name;\r\n        string description;\r\n        uint256 voteCount;\r\n        bool funded;\r\n    }\r\n\r\n    Project[] public projects;\r\n    address[] public purchasers;\r\n    mapping(address => mapping(uint256 => bool)) public votes;\r\n    mapping(address => uint256) public dividends;\r\n\r\n    // Track total dividends distributed\r\n    uint256 public totalDividends;\r\n    mapping(address => uint256) public claimedDividends;\r\n\r\n    event ProjectAdded(uint256 projectId, string description);\r\n    event Voted(address indexed voter, uint256 indexed projectId);\r\n    event ProjectFunded(uint256 projectId, uint256 amount);\r\n    event DividendsDistributed(uint256 amount);\r\n    event PurchaserAdded(address purchaser);\r\n\r\n    constructor(GreenEnergyToken _token) Ownable(msg.sender) {\r\n        token = _token;\r\n    }\r\n\r\n    function addPurchaser(address purchaser) public onlyOwner {\r\n        for (uint256 i = 0; i < purchasers.length; i++) {\r\n            if (purchasers[i] == purchaser) {\r\n                return;\r\n            }\r\n        }\r\n        purchasers.push(purchaser);\r\n        emit PurchaserAdded(purchaser);\r\n    }\r\n\r\n    function addProject(\r\n        string memory name,\r\n        string memory description\r\n    ) public onlyOwner {\r\n        projects.push(\r\n            Project({\r\n                name: name,\r\n                description: description,\r\n                voteCount: 0,\r\n                funded: false\r\n            })\r\n        );\r\n        emit ProjectAdded(projects.length - 1, description);\r\n    }\r\n\r\n    function vote(uint256 projectId) public {\r\n        require(projectId < projects.length, \"Project does not exist\");\r\n        require(\r\n            !votes[msg.sender][projectId],\r\n            \"Already voted for this project\"\r\n        );\r\n\r\n        uint256 voterBalance = token.balanceOf(msg.sender);\r\n        require(voterBalance > 0, \"No tokens to vote with\");\r\n\r\n        projects[projectId].voteCount += voterBalance;\r\n        votes[msg.sender][projectId] = true;\r\n\r\n        emit Voted(msg.sender, projectId);\r\n    }\r\n\r\n    function fundProject(uint256 projectId) public payable onlyOwner {\r\n        require(projectId < projects.length, \"Project does not exist\");\r\n        require(!projects[projectId].funded, \"Project already funded\");\r\n        require(msg.value > 0, \"No Ether sent\");\r\n\r\n        projects[projectId].funded = true;\r\n        distributeDividends(msg.value);\r\n\r\n        emit ProjectFunded(projectId, msg.value);\r\n    }\r\n\r\n    function distributeDividends(uint256 amount) internal {\r\n        totalDividends += amount;\r\n        for (uint256 i = 0; i < purchasers.length; i++) {\r\n            dividends[purchasers[i]] += calculateDividends(\r\n                purchasers[i],\r\n                amount\r\n            );\r\n        }\r\n        emit DividendsDistributed(amount);\r\n    }\r\n\r\n    function claimDividends() public {\r\n        uint256 owed = dividends[msg.sender];\r\n        require(owed > 0, \"No dividends to claim\");\r\n\r\n        dividends[msg.sender] = 0;\r\n        claimedDividends[msg.sender] += owed;\r\n        payable(msg.sender).transfer(owed);\r\n    }\r\n\r\n    function calculateDividends(\r\n        address account,\r\n        uint256 amount\r\n    ) internal view returns (uint256) {\r\n        uint256 totalSupply = token.totalSupply();\r\n        if (totalSupply == 0) {\r\n            return 0;\r\n        }\r\n        uint256 balance = token.balanceOf(account);\r\n\r\n        return (amount * balance) / totalSupply;\r\n    }\r\n\r\n    receive() external payable {}\r\n\r\n    fallback() external payable {}\r\n\r\n    function projectCount() public view returns (uint256) {\r\n        return projects.length;\r\n    }\r\n\r\n    function getProject(\r\n        uint256 projectId\r\n    )\r\n        public\r\n        view\r\n        returns (\r\n            string memory name,\r\n            string memory description,\r\n            uint256 voteCount,\r\n            bool funded\r\n        )\r\n    {\r\n        require(projectId < projects.length, \"Project does not exist\");\r\n        Project memory project = projects[projectId];\r\n        return (\r\n            project.name,\r\n            project.description,\r\n            project.voteCount,\r\n            project.funded\r\n        );\r\n    }\r\n\r\n    function getDividend(address user) public view returns (uint256) {\r\n        return claimedDividends[user];\r\n    }\r\n}\r\n",
  "sourcePath": "D:\\ours\\projects\\dev\\TokenExample\\contracts\\GreenEnergyProjectVoting.sol",
  "compiler": {
    "name": "solc",
    "version": "0.8.20+commit.a1b79de6.Emscripten.clang"
  },
  "schemaVersion": "3.4.16",
  "updatedAt": "2024-07-02T13:15:22.639Z",
  "networkType": "ethereum",
  "devdoc": {
    "errors": {
      "OwnableInvalidOwner(address)": [
        {
          "details": "The owner is not a valid owner account. (eg. `address(0)`)"
        }
      ],
      "OwnableUnauthorizedAccount(address)": [
        {
          "details": "The caller account is not authorized to perform an operation."
        }
      ]
    },
    "kind": "dev",
    "methods": {
      "owner()": {
        "details": "Returns the address of the current owner."
      },
      "renounceOwnership()": {
        "details": "Leaves the contract without owner. It will not be possible to call `onlyOwner` functions. Can only be called by the current owner. NOTE: Renouncing ownership will leave the contract without an owner, thereby disabling any functionality that is only available to the owner."
      },
      "transferOwnership(address)": {
        "details": "Transfers ownership of the contract to a new account (`newOwner`). Can only be called by the current owner."
      }
    },
    "version": 1
  },
  "userdoc": {
    "kind": "user",
    "methods": {},
    "version": 1
  }
}