{
  "contractName": "GreenEnergyCrowdsale",
  "abi": [
    {
      "inputs": [
        {
          "internalType": "uint256",
          "name": "_rate",
          "type": "uint256"
        },
        {
          "internalType": "contract GreenEnergyToken",
          "name": "_token",
          "type": "address"
        },
        {
          "internalType": "contract GreenEnergyProjectVoting",
          "name": "_votingContract",
          "type": "address"
        }
      ],
      "stateMutability": "nonpayable",
      "type": "constructor"
    },
    {
      "inputs": [
        {
          "internalType": "address",
          "name": "owner",
          "type": "address"
        }
      ],
      "name": "OwnableInvalidOwner",
      "type": "error"
    },
    {
      "inputs": [
        {
          "internalType": "address",
          "name": "account",
          "type": "address"
        }
      ],
      "name": "OwnableUnauthorizedAccount",
      "type": "error"
    },
    {
      "anonymous": false,
      "inputs": [
        {
          "indexed": true,
          "internalType": "address",
          "name": "previousOwner",
          "type": "address"
        },
        {
          "indexed": true,
          "internalType": "address",
          "name": "newOwner",
          "type": "address"
        }
      ],
      "name": "OwnershipTransferred",
      "type": "event"
    },
    {
      "anonymous": false,
      "inputs": [
        {
          "indexed": true,
          "internalType": "address",
          "name": "purchaser",
          "type": "address"
        },
        {
          "indexed": false,
          "internalType": "uint256",
          "name": "value",
          "type": "uint256"
        },
        {
          "indexed": false,
          "internalType": "uint256",
          "name": "amount",
          "type": "uint256"
        }
      ],
      "name": "TokensPurchased",
      "type": "event"
    },
    {
      "anonymous": false,
      "inputs": [
        {
          "indexed": false,
          "internalType": "bool",
          "name": "success",
          "type": "bool"
        }
      ],
      "name": "TransferResult",
      "type": "event"
    },
    {
      "inputs": [],
      "name": "owner",
      "outputs": [
        {
          "internalType": "address",
          "name": "",
          "type": "address"
        }
      ],
      "stateMutability": "view",
      "type": "function",
      "constant": true
    },
    {
      "inputs": [],
      "name": "rate",
      "outputs": [
        {
          "internalType": "uint256",
          "name": "",
          "type": "uint256"
        }
      ],
      "stateMutability": "view",
      "type": "function",
      "constant": true
    },
    {
      "inputs": [],
      "name": "renounceOwnership",
      "outputs": [],
      "stateMutability": "nonpayable",
      "type": "function"
    },
    {
      "inputs": [],
      "name": "token",
      "outputs": [
        {
          "internalType": "contract GreenEnergyToken",
          "name": "",
          "type": "address"
        }
      ],
      "stateMutability": "view",
      "type": "function",
      "constant": true
    },
    {
      "inputs": [
        {
          "internalType": "address",
          "name": "newOwner",
          "type": "address"
        }
      ],
      "name": "transferOwnership",
      "outputs": [],
      "stateMutability": "nonpayable",
      "type": "function"
    },
    {
      "inputs": [],
      "name": "votingContract",
      "outputs": [
        {
          "internalType": "contract GreenEnergyProjectVoting",
          "name": "",
          "type": "address"
        }
      ],
      "stateMutability": "view",
      "type": "function",
      "constant": true
    },
    {
      "inputs": [],
      "name": "weiRaised",
      "outputs": [
        {
          "internalType": "uint256",
          "name": "",
          "type": "uint256"
        }
      ],
      "stateMutability": "view",
      "type": "function",
      "constant": true
    },
    {
      "inputs": [],
      "name": "buyTokens",
      "outputs": [],
      "stateMutability": "payable",
      "type": "function",
      "payable": true
    },
    {
      "inputs": [
        {
          "internalType": "string",
          "name": "name",
          "type": "string"
        },
        {
          "internalType": "string",
          "name": "description",
          "type": "string"
        }
      ],
      "name": "addProject",
      "outputs": [],
      "stateMutability": "nonpayable",
      "type": "function"
    },
    {
      "inputs": [
        {
          "internalType": "uint256",
          "name": "projectId",
          "type": "uint256"
        }
      ],
      "name": "fundProject",
      "outputs": [],
      "stateMutability": "payable",
      "type": "function",
      "payable": true
    },
    {
      "inputs": [],
      "name": "getRate",
      "outputs": [
        {
          "internalType": "uint256",
          "name": "",
          "type": "uint256"
        }
      ],
      "stateMutability": "view",
      "type": "function",
      "constant": true
    },
    {
      "inputs": [
        {
          "internalType": "uint256",
          "name": "weiAmount",
          "type": "uint256"
        }
      ],
      "name": "getTokenAmount",
      "outputs": [
        {
          "internalType": "uint256",
          "name": "",
          "type": "uint256"
        }
      ],
      "stateMutability": "view",
      "type": "function",
      "constant": true
    },
    {
      "inputs": [
        {
          "internalType": "uint256",
          "name": "newRate",
          "type": "uint256"
        }
      ],
      "name": "setRate",
      "outputs": [],
      "stateMutability": "nonpayable",
      "type": "function"
    },
    {
      "inputs": [
        {
          "internalType": "uint256",
          "name": "amount",
          "type": "uint256"
        }
      ],
      "name": "withdrawTokens",
      "outputs": [],
      "stateMutability": "nonpayable",
      "type": "function"
    }
  ],
  "bytecode": "0x608060405234801562000010575f80fd5b50604051620016f6380380620016f6833981810160405281019062000036919062000439565b335f73ffffffffffffffffffffffffffffffffffffffff168173ffffffffffffffffffffffffffffffffffffffff1603620000aa575f6040517f1e4fbdf7000000000000000000000000000000000000000000000000000000008152600401620000a19190620004a3565b60405180910390fd5b620000bb816200027360201b60201c565b505f831162000101576040517f08c379a0000000000000000000000000000000000000000000000000000000008152600401620000f8906200051c565b60405180910390fd5b5f73ffffffffffffffffffffffffffffffffffffffff168273ffffffffffffffffffffffffffffffffffffffff160362000172576040517f08c379a000000000000000000000000000000000000000000000000000000000815260040162000169906200058a565b60405180910390fd5b5f73ffffffffffffffffffffffffffffffffffffffff168173ffffffffffffffffffffffffffffffffffffffff1603620001e3576040517f08c379a0000000000000000000000000000000000000000000000000000000008152600401620001da906200061e565b60405180910390fd5b826003819055508160015f6101000a81548173ffffffffffffffffffffffffffffffffffffffff021916908373ffffffffffffffffffffffffffffffffffffffff1602179055508060025f6101000a81548173ffffffffffffffffffffffffffffffffffffffff021916908373ffffffffffffffffffffffffffffffffffffffff1602179055505050506200063e565b5f805f9054906101000a900473ffffffffffffffffffffffffffffffffffffffff169050815f806101000a81548173ffffffffffffffffffffffffffffffffffffffff021916908373ffffffffffffffffffffffffffffffffffffffff1602179055508173ffffffffffffffffffffffffffffffffffffffff168173ffffffffffffffffffffffffffffffffffffffff167f8be0079c531659141344cd1fd0a4f28419497f9722a3daafe3b4186f6b6457e060405160405180910390a35050565b5f80fd5b5f819050919050565b6200034c8162000338565b811462000357575f80fd5b50565b5f815190506200036a8162000341565b92915050565b5f73ffffffffffffffffffffffffffffffffffffffff82169050919050565b5f6200039b8262000370565b9050919050565b5f620003ae826200038f565b9050919050565b620003c081620003a2565b8114620003cb575f80fd5b50565b5f81519050620003de81620003b5565b92915050565b5f620003f08262000370565b9050919050565b5f6200040382620003e4565b9050919050565b6200041581620003f7565b811462000420575f80fd5b50565b5f8151905062000433816200040a565b92915050565b5f805f6060848603121562000453576200045262000334565b5b5f62000462868287016200035a565b93505060206200047586828701620003ce565b9250506040620004888682870162000423565b9150509250925092565b6200049d816200038f565b82525050565b5f602082019050620004b85f83018462000492565b92915050565b5f82825260208201905092915050565b7f526174652073686f756c642062652067726561746572207468616e20300000005f82015250565b5f62000504601d83620004be565b91506200051182620004ce565b602082019050919050565b5f6020820190508181035f8301526200053581620004f6565b9050919050565b7f546f6b656e20616464726573732073686f756c64206e6f74206265207a65726f5f82015250565b5f62000572602083620004be565b91506200057f826200053c565b602082019050919050565b5f6020820190508181035f830152620005a38162000564565b9050919050565b7f566f74696e6720436f6e747261637420616464726573732073686f756c64206e5f8201527f6f74206265207a65726f00000000000000000000000000000000000000000000602082015250565b5f62000606602a83620004be565b91506200061382620005aa565b604082019050919050565b5f6020820190508181035f8301526200063781620005f8565b9050919050565b6110aa806200064c5f395ff3fe6080604052600436106100dc575f3560e01c80638da5cb5b1161007e578063c2507ac111610058578063c2507ac11461025c578063d0febe4c14610298578063f2fde38b146102a2578063fc0c546a146102ca576100dc565b80638da5cb5b146101e0578063980c308d1461020a578063c1fc006a14610232576100dc565b80634042b66f116100ba5780634042b66f1461015a578063679aefce146101845780636c563abe146101ae578063715018a6146101ca576100dc565b80632c4e722e146100e0578063315a095d1461010a57806334fcf43714610132575b5f80fd5b3480156100eb575f80fd5b506100f46102f4565b60405161010191906109ed565b60405180910390f35b348015610115575f80fd5b50610130600480360381019061012b9190610a41565b6102fa565b005b34801561013d575f80fd5b5061015860048036038101906101539190610a41565b6103a9565b005b348015610165575f80fd5b5061016e6103bb565b60405161017b91906109ed565b60405180910390f35b34801561018f575f80fd5b506101986103c1565b6040516101a591906109ed565b60405180910390f35b6101c860048036038101906101c39190610a41565b6103ca565b005b3480156101d5575f80fd5b506101de61045e565b005b3480156101eb575f80fd5b506101f4610471565b6040516102019190610aab565b60405180910390f35b348015610215575f80fd5b50610230600480360381019061022b9190610c00565b610498565b005b34801561023d575f80fd5b5061024661052d565b6040516102539190610cd1565b60405180910390f35b348015610267575f80fd5b50610282600480360381019061027d9190610a41565b610552565b60405161028f91906109ed565b60405180910390f35b6102a0610576565b005b3480156102ad575f80fd5b506102c860048036038101906102c39190610d14565b6107c7565b005b3480156102d5575f80fd5b506102de61084b565b6040516102eb9190610d70565b60405180910390f35b60035481565b610302610870565b60015f9054906101000a900473ffffffffffffffffffffffffffffffffffffffff1673ffffffffffffffffffffffffffffffffffffffff1663a9059cbb610347610471565b836040518363ffffffff1660e01b8152600401610365929190610d89565b6020604051808303815f875af1158015610381573d5f803e3d5ffd5b505050506040513d601f19601f820116820180604052508101906103a59190610de5565b5050565b6103b1610870565b8060038190555050565b60045481565b5f600354905090565b6103d2610870565b60025f9054906101000a900473ffffffffffffffffffffffffffffffffffffffff1673ffffffffffffffffffffffffffffffffffffffff16636c563abe34836040518363ffffffff1660e01b815260040161042d91906109ed565b5f604051808303818588803b158015610444575f80fd5b505af1158015610456573d5f803e3d5ffd5b505050505050565b610466610870565b61046f5f6108f7565b565b5f805f9054906101000a900473ffffffffffffffffffffffffffffffffffffffff16905090565b6104a0610870565b60025f9054906101000a900473ffffffffffffffffffffffffffffffffffffffff1673ffffffffffffffffffffffffffffffffffffffff1663980c308d83836040518363ffffffff1660e01b81526004016104fc929190610e8a565b5f604051808303815f87803b158015610513575f80fd5b505af1158015610525573d5f803e3d5ffd5b505050505050565b60025f9054906101000a900473ffffffffffffffffffffffffffffffffffffffff1681565b5f670de0b6b3a7640000610565836109b8565b61056f9190610f19565b9050919050565b5f3490505f81116105bc576040517f08c379a00000000000000000000000000000000000000000000000000000000081526004016105b390610f93565b60405180910390fd5b5f6105c6826109b8565b90508160045f8282546105d99190610fb1565b9250508190555060015f9054906101000a900473ffffffffffffffffffffffffffffffffffffffff1673ffffffffffffffffffffffffffffffffffffffff166340c10f1933836040518363ffffffff1660e01b815260040161063c929190610d89565b5f604051808303815f87803b158015610653575f80fd5b505af1158015610665573d5f803e3d5ffd5b5050505060025f9054906101000a900473ffffffffffffffffffffffffffffffffffffffff1673ffffffffffffffffffffffffffffffffffffffff1663a0e1f42c336040518263ffffffff1660e01b81526004016106c39190610aab565b5f604051808303815f87803b1580156106da575f80fd5b505af11580156106ec573d5f803e3d5ffd5b505050503373ffffffffffffffffffffffffffffffffffffffff167f8fafebcaf9d154343dad25669bfa277f4fbacd7ac6b0c4fed522580e040a0f338383604051610738929190610fe4565b60405180910390a27f79d3fc7d275e2b96aa9a87ba7abbc02787aa88e9c495a82ebbe905c77386f4d46001604051610770919061101a565b60405180910390a1610780610471565b73ffffffffffffffffffffffffffffffffffffffff166108fc8390811502906040515f60405180830381858888f193505050501580156107c2573d5f803e3d5ffd5b505050565b6107cf610870565b5f73ffffffffffffffffffffffffffffffffffffffff168173ffffffffffffffffffffffffffffffffffffffff160361083f575f6040517f1e4fbdf70000000000000000000000000000000000000000000000000000000081526004016108369190610aab565b60405180910390fd5b610848816108f7565b50565b60015f9054906101000a900473ffffffffffffffffffffffffffffffffffffffff1681565b6108786109ce565b73ffffffffffffffffffffffffffffffffffffffff16610896610471565b73ffffffffffffffffffffffffffffffffffffffff16146108f5576108b96109ce565b6040517f118cdaa70000000000000000000000000000000000000000000000000000000081526004016108ec9190610aab565b60405180910390fd5b565b5f805f9054906101000a900473ffffffffffffffffffffffffffffffffffffffff169050815f806101000a81548173ffffffffffffffffffffffffffffffffffffffff021916908373ffffffffffffffffffffffffffffffffffffffff1602179055508173ffffffffffffffffffffffffffffffffffffffff168173ffffffffffffffffffffffffffffffffffffffff167f8be0079c531659141344cd1fd0a4f28419497f9722a3daafe3b4186f6b6457e060405160405180910390a35050565b5f600354826109c79190611033565b9050919050565b5f33905090565b5f819050919050565b6109e7816109d5565b82525050565b5f602082019050610a005f8301846109de565b92915050565b5f604051905090565b5f80fd5b5f80fd5b610a20816109d5565b8114610a2a575f80fd5b50565b5f81359050610a3b81610a17565b92915050565b5f60208284031215610a5657610a55610a0f565b5b5f610a6384828501610a2d565b91505092915050565b5f73ffffffffffffffffffffffffffffffffffffffff82169050919050565b5f610a9582610a6c565b9050919050565b610aa581610a8b565b82525050565b5f602082019050610abe5f830184610a9c565b92915050565b5f80fd5b5f80fd5b5f601f19601f8301169050919050565b7f4e487b71000000000000000000000000000000000000000000000000000000005f52604160045260245ffd5b610b1282610acc565b810181811067ffffffffffffffff82111715610b3157610b30610adc565b5b80604052505050565b5f610b43610a06565b9050610b4f8282610b09565b919050565b5f67ffffffffffffffff821115610b6e57610b6d610adc565b5b610b7782610acc565b9050602081019050919050565b828183375f83830152505050565b5f610ba4610b9f84610b54565b610b3a565b905082815260208101848484011115610bc057610bbf610ac8565b5b610bcb848285610b84565b509392505050565b5f82601f830112610be757610be6610ac4565b5b8135610bf7848260208601610b92565b91505092915050565b5f8060408385031215610c1657610c15610a0f565b5b5f83013567ffffffffffffffff811115610c3357610c32610a13565b5b610c3f85828601610bd3565b925050602083013567ffffffffffffffff811115610c6057610c5f610a13565b5b610c6c85828601610bd3565b9150509250929050565b5f819050919050565b5f610c99610c94610c8f84610a6c565b610c76565b610a6c565b9050919050565b5f610caa82610c7f565b9050919050565b5f610cbb82610ca0565b9050919050565b610ccb81610cb1565b82525050565b5f602082019050610ce45f830184610cc2565b92915050565b610cf381610a8b565b8114610cfd575f80fd5b50565b5f81359050610d0e81610cea565b92915050565b5f60208284031215610d2957610d28610a0f565b5b5f610d3684828501610d00565b91505092915050565b5f610d4982610c7f565b9050919050565b5f610d5a82610d3f565b9050919050565b610d6a81610d50565b82525050565b5f602082019050610d835f830184610d61565b92915050565b5f604082019050610d9c5f830185610a9c565b610da960208301846109de565b9392505050565b5f8115159050919050565b610dc481610db0565b8114610dce575f80fd5b50565b5f81519050610ddf81610dbb565b92915050565b5f60208284031215610dfa57610df9610a0f565b5b5f610e0784828501610dd1565b91505092915050565b5f81519050919050565b5f82825260208201905092915050565b5f5b83811015610e47578082015181840152602081019050610e2c565b5f8484015250505050565b5f610e5c82610e10565b610e668185610e1a565b9350610e76818560208601610e2a565b610e7f81610acc565b840191505092915050565b5f6040820190508181035f830152610ea28185610e52565b90508181036020830152610eb68184610e52565b90509392505050565b7f4e487b71000000000000000000000000000000000000000000000000000000005f52601260045260245ffd5b7f4e487b71000000000000000000000000000000000000000000000000000000005f52601160045260245ffd5b5f610f23826109d5565b9150610f2e836109d5565b925082610f3e57610f3d610ebf565b5b828204905092915050565b7f596f75206e65656420746f2073656e6420736f6d6520657468657200000000005f82015250565b5f610f7d601b83610e1a565b9150610f8882610f49565b602082019050919050565b5f6020820190508181035f830152610faa81610f71565b9050919050565b5f610fbb826109d5565b9150610fc6836109d5565b9250828201905080821115610fde57610fdd610eec565b5b92915050565b5f604082019050610ff75f8301856109de565b61100460208301846109de565b9392505050565b61101481610db0565b82525050565b5f60208201905061102d5f83018461100b565b92915050565b5f61103d826109d5565b9150611048836109d5565b9250828202611056816109d5565b9150828204841483151761106d5761106c610eec565b5b509291505056fea26469706673582212205701c6b98a071e789d8e15fc825b40687e17b7dcf12b7fd5647610d97fa463f364736f6c63430008140033",
  "immutableReferences": {},
  "source": "// SPDX-License-Identifier: MIT\r\npragma solidity ^0.8.20;\r\n\r\nimport \"./GreenEnergyToken.sol\";\r\nimport \"./GreenEnergyProjectVoting.sol\";\r\nimport \"@openzeppelin/contracts/access/Ownable.sol\";\r\n\r\n\r\ncontract GreenEnergyCrowdsale is Ownable {\r\n    GreenEnergyToken public token;\r\n    GreenEnergyProjectVoting public votingContract;\r\n\r\n    uint256 public rate; // Tokens per Ether\r\n    uint256 public weiRaised;\r\n\r\n    event TokensPurchased(address indexed purchaser, uint256 value, uint256 amount);\r\n    event TransferResult(bool success);\r\n\r\n    constructor(uint256 _rate, GreenEnergyToken _token, GreenEnergyProjectVoting _votingContract) Ownable(msg.sender) {\r\n        require(_rate > 0, \"Rate should be greater than 0\");\r\n        require(address(_token) != address(0), \"Token address should not be zero\");\r\n        require(address(_votingContract) != address(0), \"Voting Contract address should not be zero\");\r\n\r\n        rate = _rate;\r\n        token = _token;\r\n        votingContract = _votingContract;\r\n    }\r\n\r\n    function buyTokens() public payable {\r\n        uint256 weiAmount = msg.value;\r\n        require(weiAmount > 0, \"You need to send some ether\");\r\n\r\n        uint256 tokens = _getTokenAmount(weiAmount);\r\n        weiRaised += weiAmount;\r\n        token.mint(msg.sender, tokens);\r\n        votingContract.addPurchaser(msg.sender);\r\n\r\n        emit TokensPurchased(msg.sender, weiAmount, tokens);\r\n        emit TransferResult(true);\r\n\r\n        payable(owner()).transfer(weiAmount);\r\n    }\r\n\r\n    function addProject(\r\n        string memory name,\r\n        string memory description\r\n    ) public onlyOwner {\r\n        votingContract.addProject(name, description);\r\n    }\r\n\r\n    function fundProject(uint256 projectId) public payable onlyOwner {\r\n        votingContract.fundProject{ value: msg.value }(projectId);\r\n    }\r\n\r\n    function getRate() public view returns(uint256) {\r\n        return rate;\r\n    }\r\n\r\n    function getTokenAmount(uint256 weiAmount) public view returns(uint256) {\r\n        return _getTokenAmount(weiAmount) / 1 ether;\r\n    }\r\n\r\n    function _getTokenAmount(uint256 weiAmount) internal view returns (uint256) {\r\n        return weiAmount * rate;\r\n    }\r\n\r\n    function setRate(uint256 newRate) public onlyOwner {\r\n        rate = newRate;\r\n    }\r\n\r\n    function withdrawTokens(uint256 amount) public onlyOwner {\r\n        token.transfer(owner(), amount);\r\n    }\r\n}\r\n",
  "sourcePath": "D:\\ours\\projects\\dev\\TokenExample\\contracts\\GreenEnergyCrowdsale.sol",
  "compiler": {
    "name": "solc",
    "version": "0.8.20+commit.a1b79de6.Emscripten.clang"
  },
  "schemaVersion": "3.4.16",
  "updatedAt": "2024-07-02T13:15:22.510Z",
  "networkType": "ethereum",
  "devdoc": {
    "errors": {
      "OwnableInvalidOwner(address)": [
        {
          "details": "The owner is not a valid owner account. (eg. `address(0)`)"
        }
      ],
      "OwnableUnauthorizedAccount(address)": [
        {
          "details": "The caller account is not authorized to perform an operation."
        }
      ]
    },
    "kind": "dev",
    "methods": {
      "owner()": {
        "details": "Returns the address of the current owner."
      },
      "renounceOwnership()": {
        "details": "Leaves the contract without owner. It will not be possible to call `onlyOwner` functions. Can only be called by the current owner. NOTE: Renouncing ownership will leave the contract without an owner, thereby disabling any functionality that is only available to the owner."
      },
      "transferOwnership(address)": {
        "details": "Transfers ownership of the contract to a new account (`newOwner`). Can only be called by the current owner."
      }
    },
    "version": 1
  },
  "userdoc": {
    "kind": "user",
    "methods": {},
    "version": 1
  }
}