{
  "contractName": "GreenEnergyProjectVoting",
  "abi": [
    {
      "inputs": [
        {
          "internalType": "contract GreenEnergyToken",
          "name": "_token",
          "type": "address"
        }
      ],
      "stateMutability": "nonpayable",
      "type": "constructor"
    },
    {
      "inputs": [
        {
          "internalType": "address",
          "name": "owner",
          "type": "address"
        }
      ],
      "name": "OwnableInvalidOwner",
      "type": "error"
    },
    {
      "inputs": [
        {
          "internalType": "address",
          "name": "account",
          "type": "address"
        }
      ],
      "name": "OwnableUnauthorizedAccount",
      "type": "error"
    },
    {
      "anonymous": false,
      "inputs": [
        {
          "indexed": false,
          "internalType": "uint256",
          "name": "amount",
          "type": "uint256"
        }
      ],
      "name": "DividendsDistributed",
      "type": "event"
    },
    {
      "anonymous": false,
      "inputs": [
        {
          "indexed": true,
          "internalType": "address",
          "name": "previousOwner",
          "type": "address"
        },
        {
          "indexed": true,
          "internalType": "address",
          "name": "newOwner",
          "type": "address"
        }
      ],
      "name": "OwnershipTransferred",
      "type": "event"
    },
    {
      "anonymous": false,
      "inputs": [
        {
          "indexed": false,
          "internalType": "uint256",
          "name": "projectId",
          "type": "uint256"
        },
        {
          "indexed": false,
          "internalType": "string",
          "name": "description",
          "type": "string"
        }
      ],
      "name": "ProjectAdded",
      "type": "event"
    },
    {
      "anonymous": false,
      "inputs": [
        {
          "indexed": false,
          "internalType": "uint256",
          "name": "projectId",
          "type": "uint256"
        },
        {
          "indexed": false,
          "internalType": "uint256",
          "name": "amount",
          "type": "uint256"
        }
      ],
      "name": "ProjectFunded",
      "type": "event"
    },
    {
      "anonymous": false,
      "inputs": [
        {
          "indexed": true,
          "internalType": "address",
          "name": "voter",
          "type": "address"
        },
        {
          "indexed": true,
          "internalType": "uint256",
          "name": "projectId",
          "type": "uint256"
        }
      ],
      "name": "Voted",
      "type": "event"
    },
    {
      "inputs": [
        {
          "internalType": "address",
          "name": "",
          "type": "address"
        }
      ],
      "name": "claimedDividends",
      "outputs": [
        {
          "internalType": "uint256",
          "name": "",
          "type": "uint256"
        }
      ],
      "stateMutability": "view",
      "type": "function",
      "constant": true
    },
    {
      "inputs": [],
      "name": "owner",
      "outputs": [
        {
          "internalType": "address",
          "name": "",
          "type": "address"
        }
      ],
      "stateMutability": "view",
      "type": "function",
      "constant": true
    },
    {
      "inputs": [
        {
          "internalType": "uint256",
          "name": "",
          "type": "uint256"
        }
      ],
      "name": "projects",
      "outputs": [
        {
          "internalType": "string",
          "name": "description",
          "type": "string"
        },
        {
          "internalType": "uint256",
          "name": "voteCount",
          "type": "uint256"
        },
        {
          "internalType": "bool",
          "name": "funded",
          "type": "bool"
        }
      ],
      "stateMutability": "view",
      "type": "function",
      "constant": true
    },
    {
      "inputs": [],
      "name": "renounceOwnership",
      "outputs": [],
      "stateMutability": "nonpayable",
      "type": "function"
    },
    {
      "inputs": [],
      "name": "token",
      "outputs": [
        {
          "internalType": "contract GreenEnergyToken",
          "name": "",
          "type": "address"
        }
      ],
      "stateMutability": "view",
      "type": "function",
      "constant": true
    },
    {
      "inputs": [],
      "name": "totalDividends",
      "outputs": [
        {
          "internalType": "uint256",
          "name": "",
          "type": "uint256"
        }
      ],
      "stateMutability": "view",
      "type": "function",
      "constant": true
    },
    {
      "inputs": [
        {
          "internalType": "address",
          "name": "newOwner",
          "type": "address"
        }
      ],
      "name": "transferOwnership",
      "outputs": [],
      "stateMutability": "nonpayable",
      "type": "function"
    },
    {
      "inputs": [
        {
          "internalType": "address",
          "name": "",
          "type": "address"
        },
        {
          "internalType": "uint256",
          "name": "",
          "type": "uint256"
        }
      ],
      "name": "votes",
      "outputs": [
        {
          "internalType": "bool",
          "name": "",
          "type": "bool"
        }
      ],
      "stateMutability": "view",
      "type": "function",
      "constant": true
    },
    {
      "stateMutability": "payable",
      "type": "receive",
      "payable": true
    },
    {
      "inputs": [
        {
          "internalType": "string",
          "name": "description",
          "type": "string"
        }
      ],
      "name": "addProject",
      "outputs": [],
      "stateMutability": "nonpayable",
      "type": "function"
    },
    {
      "inputs": [
        {
          "internalType": "uint256",
          "name": "projectId",
          "type": "uint256"
        }
      ],
      "name": "vote",
      "outputs": [],
      "stateMutability": "nonpayable",
      "type": "function"
    },
    {
      "inputs": [
        {
          "internalType": "uint256",
          "name": "projectId",
          "type": "uint256"
        },
        {
          "internalType": "uint256",
          "name": "amount",
          "type": "uint256"
        }
      ],
      "name": "fundProject",
      "outputs": [],
      "stateMutability": "nonpayable",
      "type": "function"
    },
    {
      "inputs": [],
      "name": "claimDividends",
      "outputs": [],
      "stateMutability": "nonpayable",
      "type": "function"
    },
    {
      "inputs": [
        {
          "internalType": "address",
          "name": "account",
          "type": "address"
        }
      ],
      "name": "calculateDividends",
      "outputs": [
        {
          "internalType": "uint256",
          "name": "",
          "type": "uint256"
        }
      ],
      "stateMutability": "view",
      "type": "function",
      "constant": true
    }
  ],
  "bytecode": "0x608060405234801562000010575f80fd5b5060405162001cf538038062001cf583398181016040528101906200003691906200023c565b335f73ffffffffffffffffffffffffffffffffffffffff168173ffffffffffffffffffffffffffffffffffffffff1603620000aa575f6040517f1e4fbdf7000000000000000000000000000000000000000000000000000000008152600401620000a191906200027d565b60405180910390fd5b620000bb816200010360201b60201c565b508060015f6101000a81548173ffffffffffffffffffffffffffffffffffffffff021916908373ffffffffffffffffffffffffffffffffffffffff1602179055505062000298565b5f805f9054906101000a900473ffffffffffffffffffffffffffffffffffffffff169050815f806101000a81548173ffffffffffffffffffffffffffffffffffffffff021916908373ffffffffffffffffffffffffffffffffffffffff1602179055508173ffffffffffffffffffffffffffffffffffffffff168173ffffffffffffffffffffffffffffffffffffffff167f8be0079c531659141344cd1fd0a4f28419497f9722a3daafe3b4186f6b6457e060405160405180910390a35050565b5f80fd5b5f73ffffffffffffffffffffffffffffffffffffffff82169050919050565b5f620001f382620001c8565b9050919050565b5f6200020682620001e7565b9050919050565b6200021881620001fa565b811462000223575f80fd5b50565b5f8151905062000236816200020d565b92915050565b5f60208284031215620002545762000253620001c4565b5b5f620002638482850162000226565b91505092915050565b6200027781620001e7565b82525050565b5f602082019050620002925f8301846200026c565b92915050565b611a4f80620002a65f395ff3fe6080604052600436106100c5575f3560e01c80637dfb33831161007e578063997664d711610058578063997664d7146102545780639f2524ee1461027e578063f2fde38b146102ba578063fc0c546a146102e2576100cc565b80637dfb3383146101b25780638da5cb5b146101ee578063912c155514610218576100cc565b80630121b93f146100d057806301cda5a4146100f85780630ed047d414610120578063107046bd14610148578063668038e014610186578063715018a61461019c576100cc565b366100cc57005b5f80fd5b3480156100db575f80fd5b506100f660048036038101906100f19190610e75565b61030c565b005b348015610103575f80fd5b5061011e60048036038101906101199190610ea0565b6105af565b005b34801561012b575f80fd5b506101466004803603810190610141919061101a565b610732565b005b348015610153575f80fd5b5061016e60048036038101906101699190610e75565b61080b565b60405161017d93929190611104565b60405180910390f35b348015610191575f80fd5b5061019a6108d2565b005b3480156101a7575f80fd5b506101b06109ba565b005b3480156101bd575f80fd5b506101d860048036038101906101d3919061119a565b6109cd565b6040516101e591906111c5565b60405180910390f35b3480156101f9575f80fd5b506102026109e2565b60405161020f91906111ed565b60405180910390f35b348015610223575f80fd5b5061023e6004803603810190610239919061119a565b610a09565b60405161024b91906111c5565b60405180910390f35b34801561025f575f80fd5b50610268610bb7565b60405161027591906111c5565b60405180910390f35b348015610289575f80fd5b506102a4600480360381019061029f9190611206565b610bbd565b6040516102b19190611244565b60405180910390f35b3480156102c5575f80fd5b506102e060048036038101906102db919061119a565b610be7565b005b3480156102ed575f80fd5b506102f6610c6b565b60405161030391906112b8565b60405180910390f35b6002805490508110610353576040517f08c379a000000000000000000000000000000000000000000000000000000000815260040161034a9061131b565b60405180910390fd5b60035f3373ffffffffffffffffffffffffffffffffffffffff1673ffffffffffffffffffffffffffffffffffffffff1681526020019081526020015f205f8281526020019081526020015f205f9054906101000a900460ff16156103ec576040517f08c379a00000000000000000000000000000000000000000000000000000000081526004016103e390611383565b60405180910390fd5b5f60015f9054906101000a900473ffffffffffffffffffffffffffffffffffffffff1673ffffffffffffffffffffffffffffffffffffffff166370a08231336040518263ffffffff1660e01b815260040161044791906111ed565b602060405180830381865afa158015610462573d5f803e3d5ffd5b505050506040513d601f19601f8201168201806040525081019061048691906113b5565b90505f81116104ca576040517f08c379a00000000000000000000000000000000000000000000000000000000081526004016104c19061142a565b60405180910390fd5b80600283815481106104df576104de611448565b5b905f5260205f2090600302016001015f8282546104fc91906114a2565b92505081905550600160035f3373ffffffffffffffffffffffffffffffffffffffff1673ffffffffffffffffffffffffffffffffffffffff1681526020019081526020015f205f8481526020019081526020015f205f6101000a81548160ff021916908315150217905550813373ffffffffffffffffffffffffffffffffffffffff167f4d99b957a2bc29a30ebd96a7be8e68fe50a3c701db28a91436490b7d53870ca460405160405180910390a35050565b6105b7610c90565b60028054905082106105fe576040517f08c379a00000000000000000000000000000000000000000000000000000000081526004016105f59061131b565b60405180910390fd5b6002828154811061061257610611611448565b5b905f5260205f2090600302016002015f9054906101000a900460ff161561066e576040517f08c379a00000000000000000000000000000000000000000000000000000000081526004016106659061151f565b60405180910390fd5b804710156106b1576040517f08c379a00000000000000000000000000000000000000000000000000000000081526004016106a8906115ad565b60405180910390fd5b6001600283815481106106c7576106c6611448565b5b905f5260205f2090600302016002015f6101000a81548160ff0219169083151502179055506106f581610d17565b7f26130d0cd3f6aa101d05e4a4f2ff016fd5b934363d17bdd03ff5dc03ec5934a982826040516107269291906115cb565b60405180910390a15050565b61073a610c90565b600260405180606001604052808381526020015f81526020015f1515815250908060018154018082558091505060019003905f5260205f2090600302015f909190919091505f820151815f01908161079291906117e3565b50602082015181600101556040820151816002015f6101000a81548160ff02191690831515021790555050507f0855be7ab46e0ae9e0d9c2f3567377c0a577a8c726b7c88615644d282a1fc29160016002805490506107f191906118b2565b826040516108009291906118e5565b60405180910390a150565b6002818154811061081a575f80fd5b905f5260205f2090600302015f91509050805f0180546108399061161f565b80601f01602080910402602001604051908101604052809291908181526020018280546108659061161f565b80156108b05780601f10610887576101008083540402835291602001916108b0565b820191905f5260205f20905b81548152906001019060200180831161089357829003601f168201915b505050505090806001015490806002015f9054906101000a900460ff16905083565b5f6108dc33610a09565b90505f8111610920576040517f08c379a00000000000000000000000000000000000000000000000000000000081526004016109179061195d565b60405180910390fd5b8060055f3373ffffffffffffffffffffffffffffffffffffffff1673ffffffffffffffffffffffffffffffffffffffff1681526020019081526020015f205f82825461096c91906114a2565b925050819055503373ffffffffffffffffffffffffffffffffffffffff166108fc8290811502906040515f60405180830381858888f193505050501580156109b6573d5f803e3d5ffd5b5050565b6109c2610c90565b6109cb5f610d69565b565b6005602052805f5260405f205f915090505481565b5f805f9054906101000a900473ffffffffffffffffffffffffffffffffffffffff16905090565b5f8060015f9054906101000a900473ffffffffffffffffffffffffffffffffffffffff1673ffffffffffffffffffffffffffffffffffffffff166318160ddd6040518163ffffffff1660e01b8152600401602060405180830381865afa158015610a75573d5f803e3d5ffd5b505050506040513d601f19601f82011682018060405250810190610a9991906113b5565b90505f8103610aab575f915050610bb2565b5f60015f9054906101000a900473ffffffffffffffffffffffffffffffffffffffff1673ffffffffffffffffffffffffffffffffffffffff166370a08231856040518263ffffffff1660e01b8152600401610b0691906111ed565b602060405180830381865afa158015610b21573d5f803e3d5ffd5b505050506040513d601f19601f82011682018060405250810190610b4591906113b5565b90505f60055f8673ffffffffffffffffffffffffffffffffffffffff1673ffffffffffffffffffffffffffffffffffffffff1681526020019081526020015f20549050808383600454610b98919061197b565b610ba291906119e9565b610bac91906118b2565b93505050505b919050565b60045481565b6003602052815f5260405f20602052805f5260405f205f915091509054906101000a900460ff1681565b610bef610c90565b5f73ffffffffffffffffffffffffffffffffffffffff168173ffffffffffffffffffffffffffffffffffffffff1603610c5f575f6040517f1e4fbdf7000000000000000000000000000000000000000000000000000000008152600401610c5691906111ed565b60405180910390fd5b610c6881610d69565b50565b60015f9054906101000a900473ffffffffffffffffffffffffffffffffffffffff1681565b610c98610e2a565b73ffffffffffffffffffffffffffffffffffffffff16610cb66109e2565b73ffffffffffffffffffffffffffffffffffffffff1614610d1557610cd9610e2a565b6040517f118cdaa7000000000000000000000000000000000000000000000000000000008152600401610d0c91906111ed565b60405180910390fd5b565b8060045f828254610d2891906114a2565b925050819055507f051019b59d3b24249903e46fd05b6def7f293fc3de54eca64b3d32743f27fc8e81604051610d5e91906111c5565b60405180910390a150565b5f805f9054906101000a900473ffffffffffffffffffffffffffffffffffffffff169050815f806101000a81548173ffffffffffffffffffffffffffffffffffffffff021916908373ffffffffffffffffffffffffffffffffffffffff1602179055508173ffffffffffffffffffffffffffffffffffffffff168173ffffffffffffffffffffffffffffffffffffffff167f8be0079c531659141344cd1fd0a4f28419497f9722a3daafe3b4186f6b6457e060405160405180910390a35050565b5f33905090565b5f604051905090565b5f80fd5b5f80fd5b5f819050919050565b610e5481610e42565b8114610e5e575f80fd5b50565b5f81359050610e6f81610e4b565b92915050565b5f60208284031215610e8a57610e89610e3a565b5b5f610e9784828501610e61565b91505092915050565b5f8060408385031215610eb657610eb5610e3a565b5b5f610ec385828601610e61565b9250506020610ed485828601610e61565b9150509250929050565b5f80fd5b5f80fd5b5f601f19601f8301169050919050565b7f4e487b71000000000000000000000000000000000000000000000000000000005f52604160045260245ffd5b610f2c82610ee6565b810181811067ffffffffffffffff82111715610f4b57610f4a610ef6565b5b80604052505050565b5f610f5d610e31565b9050610f698282610f23565b919050565b5f67ffffffffffffffff821115610f8857610f87610ef6565b5b610f9182610ee6565b9050602081019050919050565b828183375f83830152505050565b5f610fbe610fb984610f6e565b610f54565b905082815260208101848484011115610fda57610fd9610ee2565b5b610fe5848285610f9e565b509392505050565b5f82601f83011261100157611000610ede565b5b8135611011848260208601610fac565b91505092915050565b5f6020828403121561102f5761102e610e3a565b5b5f82013567ffffffffffffffff81111561104c5761104b610e3e565b5b61105884828501610fed565b91505092915050565b5f81519050919050565b5f82825260208201905092915050565b5f5b8381101561109857808201518184015260208101905061107d565b5f8484015250505050565b5f6110ad82611061565b6110b7818561106b565b93506110c781856020860161107b565b6110d081610ee6565b840191505092915050565b6110e481610e42565b82525050565b5f8115159050919050565b6110fe816110ea565b82525050565b5f6060820190508181035f83015261111c81866110a3565b905061112b60208301856110db565b61113860408301846110f5565b949350505050565b5f73ffffffffffffffffffffffffffffffffffffffff82169050919050565b5f61116982611140565b9050919050565b6111798161115f565b8114611183575f80fd5b50565b5f8135905061119481611170565b92915050565b5f602082840312156111af576111ae610e3a565b5b5f6111bc84828501611186565b91505092915050565b5f6020820190506111d85f8301846110db565b92915050565b6111e78161115f565b82525050565b5f6020820190506112005f8301846111de565b92915050565b5f806040838503121561121c5761121b610e3a565b5b5f61122985828601611186565b925050602061123a85828601610e61565b9150509250929050565b5f6020820190506112575f8301846110f5565b92915050565b5f819050919050565b5f61128061127b61127684611140565b61125d565b611140565b9050919050565b5f61129182611266565b9050919050565b5f6112a282611287565b9050919050565b6112b281611298565b82525050565b5f6020820190506112cb5f8301846112a9565b92915050565b7f50726f6a65637420646f6573206e6f74206578697374000000000000000000005f82015250565b5f61130560168361106b565b9150611310826112d1565b602082019050919050565b5f6020820190508181035f830152611332816112f9565b9050919050565b7f416c726561647920766f74656420666f7220746869732070726f6a65637400005f82015250565b5f61136d601e8361106b565b915061137882611339565b602082019050919050565b5f6020820190508181035f83015261139a81611361565b9050919050565b5f815190506113af81610e4b565b92915050565b5f602082840312156113ca576113c9610e3a565b5b5f6113d7848285016113a1565b91505092915050565b7f4e6f20746f6b656e7320746f20766f74652077697468000000000000000000005f82015250565b5f61141460168361106b565b915061141f826113e0565b602082019050919050565b5f6020820190508181035f83015261144181611408565b9050919050565b7f4e487b71000000000000000000000000000000000000000000000000000000005f52603260045260245ffd5b7f4e487b71000000000000000000000000000000000000000000000000000000005f52601160045260245ffd5b5f6114ac82610e42565b91506114b783610e42565b92508282019050808211156114cf576114ce611475565b5b92915050565b7f50726f6a65637420616c72656164792066756e646564000000000000000000005f82015250565b5f61150960168361106b565b9150611514826114d5565b602082019050919050565b5f6020820190508181035f830152611536816114fd565b9050919050565b7f496e73756666696369656e742062616c616e636520746f2066756e642070726f5f8201527f6a65637400000000000000000000000000000000000000000000000000000000602082015250565b5f61159760248361106b565b91506115a28261153d565b604082019050919050565b5f6020820190508181035f8301526115c48161158b565b9050919050565b5f6040820190506115de5f8301856110db565b6115eb60208301846110db565b9392505050565b7f4e487b71000000000000000000000000000000000000000000000000000000005f52602260045260245ffd5b5f600282049050600182168061163657607f821691505b602082108103611649576116486115f2565b5b50919050565b5f819050815f5260205f209050919050565b5f6020601f8301049050919050565b5f82821b905092915050565b5f600883026116ab7fffffffffffffffffffffffffffffffffffffffffffffffffffffffffffffffff82611670565b6116b58683611670565b95508019841693508086168417925050509392505050565b5f6116e76116e26116dd84610e42565b61125d565b610e42565b9050919050565b5f819050919050565b611700836116cd565b61171461170c826116ee565b84845461167c565b825550505050565b5f90565b61172861171c565b6117338184846116f7565b505050565b5b818110156117565761174b5f82611720565b600181019050611739565b5050565b601f82111561179b5761176c8161164f565b61177584611661565b81016020851015611784578190505b61179861179085611661565b830182611738565b50505b505050565b5f82821c905092915050565b5f6117bb5f19846008026117a0565b1980831691505092915050565b5f6117d383836117ac565b9150826002028217905092915050565b6117ec82611061565b67ffffffffffffffff81111561180557611804610ef6565b5b61180f825461161f565b61181a82828561175a565b5f60209050601f83116001811461184b575f8415611839578287015190505b61184385826117c8565b8655506118aa565b601f1984166118598661164f565b5f5b828110156118805784890151825560018201915060208501945060208101905061185b565b8683101561189d5784890151611899601f8916826117ac565b8355505b6001600288020188555050505b505050505050565b5f6118bc82610e42565b91506118c783610e42565b92508282039050818111156118df576118de611475565b5b92915050565b5f6040820190506118f85f8301856110db565b818103602083015261190a81846110a3565b90509392505050565b7f4e6f206469766964656e647320746f20636c61696d00000000000000000000005f82015250565b5f61194760158361106b565b915061195282611913565b602082019050919050565b5f6020820190508181035f8301526119748161193b565b9050919050565b5f61198582610e42565b915061199083610e42565b925082820261199e81610e42565b915082820484148315176119b5576119b4611475565b5b5092915050565b7f4e487b71000000000000000000000000000000000000000000000000000000005f52601260045260245ffd5b5f6119f382610e42565b91506119fe83610e42565b925082611a0e57611a0d6119bc565b5b82820490509291505056fea2646970667358221220aa9d79f15bc494a346cf37d0616b81fe26a8a8089bbc3a24c235b9ea29a01a5764736f6c63430008140033",
  "immutableReferences": {},
  "source": "// SPDX-License-Identifier: MIT\r\npragma solidity ^0.8.0;\r\n\r\nimport \"./GreenEnergyToken.sol\";\r\nimport \"@openzeppelin/contracts/access/Ownable.sol\";\r\n\r\ncontract GreenEnergyProjectVoting is Ownable {\r\n    GreenEnergyToken public token;\r\n\r\n    struct Project {\r\n        string description;\r\n        uint256 voteCount;\r\n        bool funded;\r\n    }\r\n\r\n    Project[] public projects;\r\n    mapping(address => mapping(uint256 => bool)) public votes;\r\n\r\n    // Track total dividends distributed\r\n    uint256 public totalDividends;\r\n    mapping(address => uint256) public claimedDividends;\r\n\r\n    event ProjectAdded(uint256 projectId, string description);\r\n    event Voted(address indexed voter, uint256 indexed projectId);\r\n    event ProjectFunded(uint256 projectId, uint256 amount);\r\n    event DividendsDistributed(uint256 amount);\r\n\r\n    constructor(GreenEnergyToken _token) Ownable(msg.sender) {\r\n        token = _token;\r\n    }\r\n\r\n    function addProject(string memory description) public onlyOwner {\r\n        projects.push(Project({\r\n            description: description,\r\n            voteCount: 0,\r\n            funded: false\r\n        }));\r\n        emit ProjectAdded(projects.length - 1, description);\r\n    }\r\n\r\n    function vote(uint256 projectId) public {\r\n        require(projectId < projects.length, \"Project does not exist\");\r\n        require(!votes[msg.sender][projectId], \"Already voted for this project\");\r\n\r\n        uint256 voterBalance = token.balanceOf(msg.sender);\r\n        require(voterBalance > 0, \"No tokens to vote with\");\r\n\r\n        projects[projectId].voteCount += voterBalance;\r\n        votes[msg.sender][projectId] = true;\r\n\r\n        emit Voted(msg.sender, projectId);\r\n    }\r\n\r\n    function fundProject(uint256 projectId, uint256 amount) public onlyOwner {\r\n        require(projectId < projects.length, \"Project does not exist\");\r\n        require(!projects[projectId].funded, \"Project already funded\");\r\n        require(address(this).balance >= amount, \"Insufficient balance to fund project\");\r\n\r\n        projects[projectId].funded = true;\r\n\r\n        distributeDividends(amount);\r\n\r\n        emit ProjectFunded(projectId, amount);\r\n    }\r\n\r\n    function distributeDividends(uint256 amount) internal {\r\n        totalDividends += amount;\r\n        emit DividendsDistributed(amount);\r\n    }\r\n\r\n    function claimDividends() public {\r\n        uint256 owed = calculateDividends(msg.sender);\r\n        require(owed > 0, \"No dividends to claim\");\r\n\r\n        claimedDividends[msg.sender] += owed;\r\n        payable(msg.sender).transfer(owed);\r\n    }\r\n\r\n    function calculateDividends(address account) public view returns (uint256) {\r\n        uint256 totalSupply = token.totalSupply();\r\n        if (totalSupply == 0) {\r\n            return 0;\r\n        }\r\n        uint256 balance = token.balanceOf(account);\r\n        uint256 totalClaimed = claimedDividends[account];\r\n\r\n        return (totalDividends * balance / totalSupply) - totalClaimed;\r\n    }\r\n\r\n    receive() external payable {}\r\n}\r\n",
  "sourcePath": "D:\\ours\\projects\\dev\\TokenExample\\contracts\\GreenEnergyProjectVoting.sol",
  "compiler": {
    "name": "solc",
    "version": "0.8.20+commit.a1b79de6.Emscripten.clang"
  },
  "schemaVersion": "3.4.16",
  "updatedAt": "2024-06-30T11:55:19.591Z",
  "networkType": "ethereum",
  "devdoc": {
    "errors": {
      "OwnableInvalidOwner(address)": [
        {
          "details": "The owner is not a valid owner account. (eg. `address(0)`)"
        }
      ],
      "OwnableUnauthorizedAccount(address)": [
        {
          "details": "The caller account is not authorized to perform an operation."
        }
      ]
    },
    "kind": "dev",
    "methods": {
      "owner()": {
        "details": "Returns the address of the current owner."
      },
      "renounceOwnership()": {
        "details": "Leaves the contract without owner. It will not be possible to call `onlyOwner` functions. Can only be called by the current owner. NOTE: Renouncing ownership will leave the contract without an owner, thereby disabling any functionality that is only available to the owner."
      },
      "transferOwnership(address)": {
        "details": "Transfers ownership of the contract to a new account (`newOwner`). Can only be called by the current owner."
      }
    },
    "version": 1
  },
  "userdoc": {
    "kind": "user",
    "methods": {},
    "version": 1
  }
}