{
  "contractName": "GreenEnergyCrowdsale",
  "abi": [
    {
      "inputs": [
        {
          "internalType": "uint256",
          "name": "_rate",
          "type": "uint256"
        },
        {
          "internalType": "address",
          "name": "_wallet",
          "type": "address"
        },
        {
          "internalType": "contract GreenEnergyToken",
          "name": "_token",
          "type": "address"
        }
      ],
      "stateMutability": "nonpayable",
      "type": "constructor"
    },
    {
      "inputs": [
        {
          "internalType": "address",
          "name": "owner",
          "type": "address"
        }
      ],
      "name": "OwnableInvalidOwner",
      "type": "error"
    },
    {
      "inputs": [
        {
          "internalType": "address",
          "name": "account",
          "type": "address"
        }
      ],
      "name": "OwnableUnauthorizedAccount",
      "type": "error"
    },
    {
      "anonymous": false,
      "inputs": [
        {
          "indexed": true,
          "internalType": "address",
          "name": "previousOwner",
          "type": "address"
        },
        {
          "indexed": true,
          "internalType": "address",
          "name": "newOwner",
          "type": "address"
        }
      ],
      "name": "OwnershipTransferred",
      "type": "event"
    },
    {
      "anonymous": false,
      "inputs": [
        {
          "indexed": true,
          "internalType": "address",
          "name": "purchaser",
          "type": "address"
        },
        {
          "indexed": false,
          "internalType": "uint256",
          "name": "value",
          "type": "uint256"
        },
        {
          "indexed": false,
          "internalType": "uint256",
          "name": "amount",
          "type": "uint256"
        }
      ],
      "name": "TokensPurchased",
      "type": "event"
    },
    {
      "anonymous": false,
      "inputs": [
        {
          "indexed": false,
          "internalType": "bool",
          "name": "success",
          "type": "bool"
        }
      ],
      "name": "TransferResult",
      "type": "event"
    },
    {
      "inputs": [],
      "name": "owner",
      "outputs": [
        {
          "internalType": "address",
          "name": "",
          "type": "address"
        }
      ],
      "stateMutability": "view",
      "type": "function",
      "constant": true
    },
    {
      "inputs": [],
      "name": "rate",
      "outputs": [
        {
          "internalType": "uint256",
          "name": "",
          "type": "uint256"
        }
      ],
      "stateMutability": "view",
      "type": "function",
      "constant": true
    },
    {
      "inputs": [],
      "name": "renounceOwnership",
      "outputs": [],
      "stateMutability": "nonpayable",
      "type": "function"
    },
    {
      "inputs": [],
      "name": "token",
      "outputs": [
        {
          "internalType": "contract GreenEnergyToken",
          "name": "",
          "type": "address"
        }
      ],
      "stateMutability": "view",
      "type": "function",
      "constant": true
    },
    {
      "inputs": [
        {
          "internalType": "address",
          "name": "newOwner",
          "type": "address"
        }
      ],
      "name": "transferOwnership",
      "outputs": [],
      "stateMutability": "nonpayable",
      "type": "function"
    },
    {
      "inputs": [],
      "name": "weiRaised",
      "outputs": [
        {
          "internalType": "uint256",
          "name": "",
          "type": "uint256"
        }
      ],
      "stateMutability": "view",
      "type": "function",
      "constant": true
    },
    {
      "inputs": [],
      "name": "buyTokens",
      "outputs": [],
      "stateMutability": "payable",
      "type": "function",
      "payable": true
    },
    {
      "inputs": [],
      "name": "getRate",
      "outputs": [
        {
          "internalType": "uint256",
          "name": "",
          "type": "uint256"
        }
      ],
      "stateMutability": "view",
      "type": "function",
      "constant": true
    },
    {
      "inputs": [
        {
          "internalType": "uint256",
          "name": "weiAmount",
          "type": "uint256"
        }
      ],
      "name": "getTokenAmount",
      "outputs": [
        {
          "internalType": "uint256",
          "name": "",
          "type": "uint256"
        }
      ],
      "stateMutability": "view",
      "type": "function",
      "constant": true
    },
    {
      "inputs": [
        {
          "internalType": "uint256",
          "name": "newRate",
          "type": "uint256"
        }
      ],
      "name": "setRate",
      "outputs": [],
      "stateMutability": "nonpayable",
      "type": "function"
    },
    {
      "inputs": [
        {
          "internalType": "uint256",
          "name": "amount",
          "type": "uint256"
        }
      ],
      "name": "withdrawTokens",
      "outputs": [],
      "stateMutability": "nonpayable",
      "type": "function"
    }
  ],
  "bytecode": "0x608060405234801562000010575f80fd5b50604051620012dc380380620012dc83398181016040528101906200003691906200054b565b335f73ffffffffffffffffffffffffffffffffffffffff168173ffffffffffffffffffffffffffffffffffffffff1603620000aa575f6040517f1e4fbdf7000000000000000000000000000000000000000000000000000000008152600401620000a19190620005b5565b60405180910390fd5b620000bb816200024460201b60201c565b505f831162000101576040517f08c379a0000000000000000000000000000000000000000000000000000000008152600401620000f8906200062e565b60405180910390fd5b5f73ffffffffffffffffffffffffffffffffffffffff168273ffffffffffffffffffffffffffffffffffffffff160362000172576040517f08c379a00000000000000000000000000000000000000000000000000000000081526004016200016990620006c2565b60405180910390fd5b5f73ffffffffffffffffffffffffffffffffffffffff168173ffffffffffffffffffffffffffffffffffffffff1603620001e3576040517f08c379a0000000000000000000000000000000000000000000000000000000008152600401620001da9062000730565b60405180910390fd5b826002819055508060015f6101000a81548173ffffffffffffffffffffffffffffffffffffffff021916908373ffffffffffffffffffffffffffffffffffffffff1602179055506200023b826200030560201b60201c565b50505062000750565b5f805f9054906101000a900473ffffffffffffffffffffffffffffffffffffffff169050815f806101000a81548173ffffffffffffffffffffffffffffffffffffffff021916908373ffffffffffffffffffffffffffffffffffffffff1602179055508173ffffffffffffffffffffffffffffffffffffffff168173ffffffffffffffffffffffffffffffffffffffff167f8be0079c531659141344cd1fd0a4f28419497f9722a3daafe3b4186f6b6457e060405160405180910390a35050565b620003156200039c60201b60201c565b5f73ffffffffffffffffffffffffffffffffffffffff168173ffffffffffffffffffffffffffffffffffffffff160362000388575f6040517f1e4fbdf70000000000000000000000000000000000000000000000000000000081526004016200037f9190620005b5565b60405180910390fd5b62000399816200024460201b60201c565b50565b620003ac6200043e60201b60201c565b73ffffffffffffffffffffffffffffffffffffffff16620003d26200044560201b60201c565b73ffffffffffffffffffffffffffffffffffffffff16146200043c57620003fe6200043e60201b60201c565b6040517f118cdaa7000000000000000000000000000000000000000000000000000000008152600401620004339190620005b5565b60405180910390fd5b565b5f33905090565b5f805f9054906101000a900473ffffffffffffffffffffffffffffffffffffffff16905090565b5f80fd5b5f819050919050565b620004848162000470565b81146200048f575f80fd5b50565b5f81519050620004a28162000479565b92915050565b5f73ffffffffffffffffffffffffffffffffffffffff82169050919050565b5f620004d382620004a8565b9050919050565b620004e581620004c7565b8114620004f0575f80fd5b50565b5f815190506200050381620004da565b92915050565b5f6200051582620004c7565b9050919050565b620005278162000509565b811462000532575f80fd5b50565b5f8151905062000545816200051c565b92915050565b5f805f606084860312156200056557620005646200046c565b5b5f620005748682870162000492565b93505060206200058786828701620004f3565b92505060406200059a8682870162000535565b9150509250925092565b620005af81620004c7565b82525050565b5f602082019050620005ca5f830184620005a4565b92915050565b5f82825260208201905092915050565b7f526174652073686f756c642062652067726561746572207468616e20300000005f82015250565b5f62000616601d83620005d0565b91506200062382620005e0565b602082019050919050565b5f6020820190508181035f830152620006478162000608565b9050919050565b7f57616c6c657420616464726573732073686f756c64206e6f74206265207a65725f8201527f6f00000000000000000000000000000000000000000000000000000000000000602082015250565b5f620006aa602183620005d0565b9150620006b7826200064e565b604082019050919050565b5f6020820190508181035f830152620006db816200069c565b9050919050565b7f546f6b656e20616464726573732073686f756c64206e6f74206265207a65726f5f82015250565b5f62000718602083620005d0565b91506200072582620006e2565b602082019050919050565b5f6020820190508181035f83015262000749816200070a565b9050919050565b610b7e806200075e5f395ff3fe60806040526004361061009b575f3560e01c8063715018a611610063578063715018a61461016d5780638da5cb5b14610183578063c2507ac1146101ad578063d0febe4c146101e9578063f2fde38b146101f3578063fc0c546a1461021b5761009b565b80632c4e722e1461009f578063315a095d146100c957806334fcf437146100f15780634042b66f14610119578063679aefce14610143575b5f80fd5b3480156100aa575f80fd5b506100b3610245565b6040516100c09190610769565b60405180910390f35b3480156100d4575f80fd5b506100ef60048036038101906100ea91906107b0565b61024b565b005b3480156100fc575f80fd5b50610117600480360381019061011291906107b0565b6102fa565b005b348015610124575f80fd5b5061012d61030c565b60405161013a9190610769565b60405180910390f35b34801561014e575f80fd5b50610157610312565b6040516101649190610769565b60405180910390f35b348015610178575f80fd5b5061018161031b565b005b34801561018e575f80fd5b5061019761032e565b6040516101a4919061081a565b60405180910390f35b3480156101b8575f80fd5b506101d360048036038101906101ce91906107b0565b610355565b6040516101e09190610769565b60405180910390f35b6101f1610379565b005b3480156101fe575f80fd5b506102196004803603810190610214919061085d565b610543565b005b348015610226575f80fd5b5061022f6105c7565b60405161023c91906108e3565b60405180910390f35b60025481565b6102536105ec565b60015f9054906101000a900473ffffffffffffffffffffffffffffffffffffffff1673ffffffffffffffffffffffffffffffffffffffff1663a9059cbb61029861032e565b836040518363ffffffff1660e01b81526004016102b69291906108fc565b6020604051808303815f875af11580156102d2573d5f803e3d5ffd5b505050506040513d601f19601f820116820180604052508101906102f69190610958565b5050565b6103026105ec565b8060028190555050565b60035481565b5f600254905090565b6103236105ec565b61032c5f610673565b565b5f805f9054906101000a900473ffffffffffffffffffffffffffffffffffffffff16905090565b5f670de0b6b3a764000061036883610734565b61037291906109dd565b9050919050565b5f3490505f81116103bf576040517f08c379a00000000000000000000000000000000000000000000000000000000081526004016103b690610a67565b60405180910390fd5b5f6103c982610734565b90508160035f8282546103dc9190610a85565b9250508190555060015f9054906101000a900473ffffffffffffffffffffffffffffffffffffffff1673ffffffffffffffffffffffffffffffffffffffff166340c10f1933836040518363ffffffff1660e01b815260040161043f9291906108fc565b5f604051808303815f87803b158015610456575f80fd5b505af1158015610468573d5f803e3d5ffd5b505050503373ffffffffffffffffffffffffffffffffffffffff167f8fafebcaf9d154343dad25669bfa277f4fbacd7ac6b0c4fed522580e040a0f3383836040516104b4929190610ab8565b60405180910390a27f79d3fc7d275e2b96aa9a87ba7abbc02787aa88e9c495a82ebbe905c77386f4d460016040516104ec9190610aee565b60405180910390a16104fc61032e565b73ffffffffffffffffffffffffffffffffffffffff166108fc8390811502906040515f60405180830381858888f1935050505015801561053e573d5f803e3d5ffd5b505050565b61054b6105ec565b5f73ffffffffffffffffffffffffffffffffffffffff168173ffffffffffffffffffffffffffffffffffffffff16036105bb575f6040517f1e4fbdf70000000000000000000000000000000000000000000000000000000081526004016105b2919061081a565b60405180910390fd5b6105c481610673565b50565b60015f9054906101000a900473ffffffffffffffffffffffffffffffffffffffff1681565b6105f461074a565b73ffffffffffffffffffffffffffffffffffffffff1661061261032e565b73ffffffffffffffffffffffffffffffffffffffff16146106715761063561074a565b6040517f118cdaa7000000000000000000000000000000000000000000000000000000008152600401610668919061081a565b60405180910390fd5b565b5f805f9054906101000a900473ffffffffffffffffffffffffffffffffffffffff169050815f806101000a81548173ffffffffffffffffffffffffffffffffffffffff021916908373ffffffffffffffffffffffffffffffffffffffff1602179055508173ffffffffffffffffffffffffffffffffffffffff168173ffffffffffffffffffffffffffffffffffffffff167f8be0079c531659141344cd1fd0a4f28419497f9722a3daafe3b4186f6b6457e060405160405180910390a35050565b5f600254826107439190610b07565b9050919050565b5f33905090565b5f819050919050565b61076381610751565b82525050565b5f60208201905061077c5f83018461075a565b92915050565b5f80fd5b61078f81610751565b8114610799575f80fd5b50565b5f813590506107aa81610786565b92915050565b5f602082840312156107c5576107c4610782565b5b5f6107d28482850161079c565b91505092915050565b5f73ffffffffffffffffffffffffffffffffffffffff82169050919050565b5f610804826107db565b9050919050565b610814816107fa565b82525050565b5f60208201905061082d5f83018461080b565b92915050565b61083c816107fa565b8114610846575f80fd5b50565b5f8135905061085781610833565b92915050565b5f6020828403121561087257610871610782565b5b5f61087f84828501610849565b91505092915050565b5f819050919050565b5f6108ab6108a66108a1846107db565b610888565b6107db565b9050919050565b5f6108bc82610891565b9050919050565b5f6108cd826108b2565b9050919050565b6108dd816108c3565b82525050565b5f6020820190506108f65f8301846108d4565b92915050565b5f60408201905061090f5f83018561080b565b61091c602083018461075a565b9392505050565b5f8115159050919050565b61093781610923565b8114610941575f80fd5b50565b5f815190506109528161092e565b92915050565b5f6020828403121561096d5761096c610782565b5b5f61097a84828501610944565b91505092915050565b7f4e487b71000000000000000000000000000000000000000000000000000000005f52601260045260245ffd5b7f4e487b71000000000000000000000000000000000000000000000000000000005f52601160045260245ffd5b5f6109e782610751565b91506109f283610751565b925082610a0257610a01610983565b5b828204905092915050565b5f82825260208201905092915050565b7f596f75206e65656420746f2073656e6420736f6d6520657468657200000000005f82015250565b5f610a51601b83610a0d565b9150610a5c82610a1d565b602082019050919050565b5f6020820190508181035f830152610a7e81610a45565b9050919050565b5f610a8f82610751565b9150610a9a83610751565b9250828201905080821115610ab257610ab16109b0565b5b92915050565b5f604082019050610acb5f83018561075a565b610ad8602083018461075a565b9392505050565b610ae881610923565b82525050565b5f602082019050610b015f830184610adf565b92915050565b5f610b1182610751565b9150610b1c83610751565b9250828202610b2a81610751565b91508282048414831517610b4157610b406109b0565b5b509291505056fea26469706673582212201da21a1a167ddf6758f94af9ff2b8fd6a3693bd8b56f2e0106f34f7cde6bac9964736f6c63430008140033",
  "immutableReferences": {},
  "source": "// SPDX-License-Identifier: MIT\r\npragma solidity ^0.8.20;\r\n\r\nimport \"./GreenEnergyToken.sol\";\r\nimport \"@openzeppelin/contracts/access/Ownable.sol\";\r\n\r\ncontract GreenEnergyCrowdsale is Ownable {\r\n    GreenEnergyToken public token;\r\n    uint256 public rate; // Tokens per Ether\r\n    uint256 public weiRaised;\r\n\r\n    event TokensPurchased(address indexed purchaser, uint256 value, uint256 amount);\r\n    event TransferResult(bool success);\r\n\r\n    constructor(uint256 _rate, address _wallet, GreenEnergyToken _token) Ownable(msg.sender) {\r\n        require(_rate > 0, \"Rate should be greater than 0\");\r\n        require(_wallet != address(0), \"Wallet address should not be zero\");\r\n        require(address(_token) != address(0), \"Token address should not be zero\");\r\n\r\n        rate = _rate;\r\n        token = _token;\r\n        transferOwnership(_wallet);\r\n    }\r\n\r\n    function buyTokens() public payable {\r\n        uint256 weiAmount = msg.value;\r\n        require(weiAmount > 0, \"You need to send some ether\");\r\n\r\n        uint256 tokens = _getTokenAmount(weiAmount);\r\n        weiRaised += weiAmount;\r\n        token.mint(msg.sender, tokens);\r\n        \r\n        emit TokensPurchased(msg.sender, weiAmount, tokens);\r\n        emit TransferResult(true);\r\n\r\n        payable(owner()).transfer(weiAmount);\r\n    }\r\n\r\n    function getRate() public view returns(uint256) {\r\n        return rate;\r\n    }\r\n\r\n    function getTokenAmount(uint256 weiAmount) public view returns(uint256) {\r\n        return _getTokenAmount(weiAmount) / 1 ether;\r\n    }\r\n\r\n    function _getTokenAmount(uint256 weiAmount) internal view returns (uint256) {\r\n        return weiAmount * rate;\r\n    }\r\n\r\n    function setRate(uint256 newRate) public onlyOwner {\r\n        rate = newRate;\r\n    }\r\n\r\n    function withdrawTokens(uint256 amount) public onlyOwner {\r\n        token.transfer(owner(), amount);\r\n    }\r\n}\r\n",
  "sourcePath": "D:\\ours\\projects\\dev\\TokenExample\\contracts\\GreenEnergyCrowdsale.sol",
  "compiler": {
    "name": "solc",
    "version": "0.8.20+commit.a1b79de6.Emscripten.clang"
  },
  "schemaVersion": "3.4.16",
  "updatedAt": "2024-06-30T11:55:19.549Z",
  "networkType": "ethereum",
  "devdoc": {
    "errors": {
      "OwnableInvalidOwner(address)": [
        {
          "details": "The owner is not a valid owner account. (eg. `address(0)`)"
        }
      ],
      "OwnableUnauthorizedAccount(address)": [
        {
          "details": "The caller account is not authorized to perform an operation."
        }
      ]
    },
    "kind": "dev",
    "methods": {
      "owner()": {
        "details": "Returns the address of the current owner."
      },
      "renounceOwnership()": {
        "details": "Leaves the contract without owner. It will not be possible to call `onlyOwner` functions. Can only be called by the current owner. NOTE: Renouncing ownership will leave the contract without an owner, thereby disabling any functionality that is only available to the owner."
      },
      "transferOwnership(address)": {
        "details": "Transfers ownership of the contract to a new account (`newOwner`). Can only be called by the current owner."
      }
    },
    "version": 1
  },
  "userdoc": {
    "kind": "user",
    "methods": {},
    "version": 1
  }
}