{
  "contractName": "GreenEnergyCrowdsale",
  "abi": [
    {
      "inputs": [
        {
          "internalType": "uint256",
          "name": "_rate",
          "type": "uint256"
        },
        {
          "internalType": "address",
          "name": "_wallet",
          "type": "address"
        },
        {
          "internalType": "contract GreenEnergyToken",
          "name": "_token",
          "type": "address"
        }
      ],
      "stateMutability": "nonpayable",
      "type": "constructor"
    },
    {
      "inputs": [
        {
          "internalType": "address",
          "name": "owner",
          "type": "address"
        }
      ],
      "name": "OwnableInvalidOwner",
      "type": "error"
    },
    {
      "inputs": [
        {
          "internalType": "address",
          "name": "account",
          "type": "address"
        }
      ],
      "name": "OwnableUnauthorizedAccount",
      "type": "error"
    },
    {
      "anonymous": false,
      "inputs": [
        {
          "indexed": true,
          "internalType": "address",
          "name": "previousOwner",
          "type": "address"
        },
        {
          "indexed": true,
          "internalType": "address",
          "name": "newOwner",
          "type": "address"
        }
      ],
      "name": "OwnershipTransferred",
      "type": "event"
    },
    {
      "anonymous": false,
      "inputs": [
        {
          "indexed": true,
          "internalType": "address",
          "name": "purchaser",
          "type": "address"
        },
        {
          "indexed": false,
          "internalType": "uint256",
          "name": "value",
          "type": "uint256"
        },
        {
          "indexed": false,
          "internalType": "uint256",
          "name": "amount",
          "type": "uint256"
        }
      ],
      "name": "TokensPurchased",
      "type": "event"
    },
    {
      "inputs": [],
      "name": "owner",
      "outputs": [
        {
          "internalType": "address",
          "name": "",
          "type": "address"
        }
      ],
      "stateMutability": "view",
      "type": "function",
      "constant": true
    },
    {
      "inputs": [],
      "name": "rate",
      "outputs": [
        {
          "internalType": "uint256",
          "name": "",
          "type": "uint256"
        }
      ],
      "stateMutability": "view",
      "type": "function",
      "constant": true
    },
    {
      "inputs": [],
      "name": "renounceOwnership",
      "outputs": [],
      "stateMutability": "nonpayable",
      "type": "function"
    },
    {
      "inputs": [],
      "name": "token",
      "outputs": [
        {
          "internalType": "contract GreenEnergyToken",
          "name": "",
          "type": "address"
        }
      ],
      "stateMutability": "view",
      "type": "function",
      "constant": true
    },
    {
      "inputs": [
        {
          "internalType": "address",
          "name": "newOwner",
          "type": "address"
        }
      ],
      "name": "transferOwnership",
      "outputs": [],
      "stateMutability": "nonpayable",
      "type": "function"
    },
    {
      "inputs": [],
      "name": "weiRaised",
      "outputs": [
        {
          "internalType": "uint256",
          "name": "",
          "type": "uint256"
        }
      ],
      "stateMutability": "view",
      "type": "function",
      "constant": true
    },
    {
      "inputs": [],
      "name": "buyTokens",
      "outputs": [],
      "stateMutability": "payable",
      "type": "function",
      "payable": true
    },
    {
      "inputs": [
        {
          "internalType": "uint256",
          "name": "newRate",
          "type": "uint256"
        }
      ],
      "name": "setRate",
      "outputs": [],
      "stateMutability": "nonpayable",
      "type": "function"
    },
    {
      "inputs": [
        {
          "internalType": "uint256",
          "name": "amount",
          "type": "uint256"
        }
      ],
      "name": "withdrawTokens",
      "outputs": [],
      "stateMutability": "nonpayable",
      "type": "function"
    }
  ],
  "bytecode": "0x608060405234801562000010575f80fd5b50604051620011763803806200117683398181016040528101906200003691906200054b565b335f73ffffffffffffffffffffffffffffffffffffffff168173ffffffffffffffffffffffffffffffffffffffff1603620000aa575f6040517f1e4fbdf7000000000000000000000000000000000000000000000000000000008152600401620000a19190620005b5565b60405180910390fd5b620000bb816200024460201b60201c565b505f831162000101576040517f08c379a0000000000000000000000000000000000000000000000000000000008152600401620000f8906200062e565b60405180910390fd5b5f73ffffffffffffffffffffffffffffffffffffffff168273ffffffffffffffffffffffffffffffffffffffff160362000172576040517f08c379a00000000000000000000000000000000000000000000000000000000081526004016200016990620006c2565b60405180910390fd5b5f73ffffffffffffffffffffffffffffffffffffffff168173ffffffffffffffffffffffffffffffffffffffff1603620001e3576040517f08c379a0000000000000000000000000000000000000000000000000000000008152600401620001da9062000730565b60405180910390fd5b826002819055508060015f6101000a81548173ffffffffffffffffffffffffffffffffffffffff021916908373ffffffffffffffffffffffffffffffffffffffff1602179055506200023b826200030560201b60201c565b50505062000750565b5f805f9054906101000a900473ffffffffffffffffffffffffffffffffffffffff169050815f806101000a81548173ffffffffffffffffffffffffffffffffffffffff021916908373ffffffffffffffffffffffffffffffffffffffff1602179055508173ffffffffffffffffffffffffffffffffffffffff168173ffffffffffffffffffffffffffffffffffffffff167f8be0079c531659141344cd1fd0a4f28419497f9722a3daafe3b4186f6b6457e060405160405180910390a35050565b620003156200039c60201b60201c565b5f73ffffffffffffffffffffffffffffffffffffffff168173ffffffffffffffffffffffffffffffffffffffff160362000388575f6040517f1e4fbdf70000000000000000000000000000000000000000000000000000000081526004016200037f9190620005b5565b60405180910390fd5b62000399816200024460201b60201c565b50565b620003ac6200043e60201b60201c565b73ffffffffffffffffffffffffffffffffffffffff16620003d26200044560201b60201c565b73ffffffffffffffffffffffffffffffffffffffff16146200043c57620003fe6200043e60201b60201c565b6040517f118cdaa7000000000000000000000000000000000000000000000000000000008152600401620004339190620005b5565b60405180910390fd5b565b5f33905090565b5f805f9054906101000a900473ffffffffffffffffffffffffffffffffffffffff16905090565b5f80fd5b5f819050919050565b620004848162000470565b81146200048f575f80fd5b50565b5f81519050620004a28162000479565b92915050565b5f73ffffffffffffffffffffffffffffffffffffffff82169050919050565b5f620004d382620004a8565b9050919050565b620004e581620004c7565b8114620004f0575f80fd5b50565b5f815190506200050381620004da565b92915050565b5f6200051582620004c7565b9050919050565b620005278162000509565b811462000532575f80fd5b50565b5f8151905062000545816200051c565b92915050565b5f805f606084860312156200056557620005646200046c565b5b5f620005748682870162000492565b93505060206200058786828701620004f3565b92505060406200059a8682870162000535565b9150509250925092565b620005af81620004c7565b82525050565b5f602082019050620005ca5f830184620005a4565b92915050565b5f82825260208201905092915050565b7f526174652073686f756c642062652067726561746572207468616e20300000005f82015250565b5f62000616601d83620005d0565b91506200062382620005e0565b602082019050919050565b5f6020820190508181035f830152620006478162000608565b9050919050565b7f57616c6c657420616464726573732073686f756c64206e6f74206265207a65725f8201527f6f00000000000000000000000000000000000000000000000000000000000000602082015250565b5f620006aa602183620005d0565b9150620006b7826200064e565b604082019050919050565b5f6020820190508181035f830152620006db816200069c565b9050919050565b7f546f6b656e20616464726573732073686f756c64206e6f74206265207a65726f5f82015250565b5f62000718602083620005d0565b91506200072582620006e2565b602082019050919050565b5f6020820190508181035f83015262000749816200070a565b9050919050565b610a18806200075e5f395ff3fe608060405260043610610085575f3560e01c8063715018a611610058578063715018a61461012d5780638da5cb5b14610143578063d0febe4c1461016d578063f2fde38b14610177578063fc0c546a1461019f57610085565b80632c4e722e14610089578063315a095d146100b357806334fcf437146100db5780634042b66f14610103575b5f80fd5b348015610094575f80fd5b5061009d6101c9565b6040516100aa9190610688565b60405180910390f35b3480156100be575f80fd5b506100d960048036038101906100d491906106cf565b6101cf565b005b3480156100e6575f80fd5b5061010160048036038101906100fc91906106cf565b61027e565b005b34801561010e575f80fd5b50610117610290565b6040516101249190610688565b60405180910390f35b348015610138575f80fd5b50610141610296565b005b34801561014e575f80fd5b506101576102a9565b6040516101649190610739565b60405180910390f35b6101756102d0565b005b348015610182575f80fd5b5061019d6004803603810190610198919061077c565b610462565b005b3480156101aa575f80fd5b506101b36104e6565b6040516101c09190610802565b60405180910390f35b60025481565b6101d761050b565b60015f9054906101000a900473ffffffffffffffffffffffffffffffffffffffff1673ffffffffffffffffffffffffffffffffffffffff1663a9059cbb61021c6102a9565b836040518363ffffffff1660e01b815260040161023a92919061081b565b6020604051808303815f875af1158015610256573d5f803e3d5ffd5b505050506040513d601f19601f8201168201806040525081019061027a9190610877565b5050565b61028661050b565b8060028190555050565b60035481565b61029e61050b565b6102a75f610592565b565b5f805f9054906101000a900473ffffffffffffffffffffffffffffffffffffffff16905090565b5f3490505f8111610316576040517f08c379a000000000000000000000000000000000000000000000000000000000815260040161030d906108fc565b60405180910390fd5b5f61032082610653565b90508160035f8282546103339190610947565b9250508190555060015f9054906101000a900473ffffffffffffffffffffffffffffffffffffffff1673ffffffffffffffffffffffffffffffffffffffff166340c10f1933836040518363ffffffff1660e01b815260040161039692919061081b565b5f604051808303815f87803b1580156103ad575f80fd5b505af11580156103bf573d5f803e3d5ffd5b505050503373ffffffffffffffffffffffffffffffffffffffff167f8fafebcaf9d154343dad25669bfa277f4fbacd7ac6b0c4fed522580e040a0f33838360405161040b92919061097a565b60405180910390a261041b6102a9565b73ffffffffffffffffffffffffffffffffffffffff166108fc3490811502906040515f60405180830381858888f1935050505015801561045d573d5f803e3d5ffd5b505050565b61046a61050b565b5f73ffffffffffffffffffffffffffffffffffffffff168173ffffffffffffffffffffffffffffffffffffffff16036104da575f6040517f1e4fbdf70000000000000000000000000000000000000000000000000000000081526004016104d19190610739565b60405180910390fd5b6104e381610592565b50565b60015f9054906101000a900473ffffffffffffffffffffffffffffffffffffffff1681565b610513610669565b73ffffffffffffffffffffffffffffffffffffffff166105316102a9565b73ffffffffffffffffffffffffffffffffffffffff161461059057610554610669565b6040517f118cdaa70000000000000000000000000000000000000000000000000000000081526004016105879190610739565b60405180910390fd5b565b5f805f9054906101000a900473ffffffffffffffffffffffffffffffffffffffff169050815f806101000a81548173ffffffffffffffffffffffffffffffffffffffff021916908373ffffffffffffffffffffffffffffffffffffffff1602179055508173ffffffffffffffffffffffffffffffffffffffff168173ffffffffffffffffffffffffffffffffffffffff167f8be0079c531659141344cd1fd0a4f28419497f9722a3daafe3b4186f6b6457e060405160405180910390a35050565b5f6002548261066291906109a1565b9050919050565b5f33905090565b5f819050919050565b61068281610670565b82525050565b5f60208201905061069b5f830184610679565b92915050565b5f80fd5b6106ae81610670565b81146106b8575f80fd5b50565b5f813590506106c9816106a5565b92915050565b5f602082840312156106e4576106e36106a1565b5b5f6106f1848285016106bb565b91505092915050565b5f73ffffffffffffffffffffffffffffffffffffffff82169050919050565b5f610723826106fa565b9050919050565b61073381610719565b82525050565b5f60208201905061074c5f83018461072a565b92915050565b61075b81610719565b8114610765575f80fd5b50565b5f8135905061077681610752565b92915050565b5f60208284031215610791576107906106a1565b5b5f61079e84828501610768565b91505092915050565b5f819050919050565b5f6107ca6107c56107c0846106fa565b6107a7565b6106fa565b9050919050565b5f6107db826107b0565b9050919050565b5f6107ec826107d1565b9050919050565b6107fc816107e2565b82525050565b5f6020820190506108155f8301846107f3565b92915050565b5f60408201905061082e5f83018561072a565b61083b6020830184610679565b9392505050565b5f8115159050919050565b61085681610842565b8114610860575f80fd5b50565b5f815190506108718161084d565b92915050565b5f6020828403121561088c5761088b6106a1565b5b5f61089984828501610863565b91505092915050565b5f82825260208201905092915050565b7f596f75206e65656420746f2073656e6420736f6d6520657468657200000000005f82015250565b5f6108e6601b836108a2565b91506108f1826108b2565b602082019050919050565b5f6020820190508181035f830152610913816108da565b9050919050565b7f4e487b71000000000000000000000000000000000000000000000000000000005f52601160045260245ffd5b5f61095182610670565b915061095c83610670565b92508282019050808211156109745761097361091a565b5b92915050565b5f60408201905061098d5f830185610679565b61099a6020830184610679565b9392505050565b5f6109ab82610670565b91506109b683610670565b92508282026109c481610670565b915082820484148315176109db576109da61091a565b5b509291505056fea264697066735822122005939ac72838add62685d16819938fff1be7c9982eda3ce93202bb631dadb91a64736f6c63430008140033",
  "immutableReferences": {},
  "source": "// SPDX-License-Identifier: MIT\r\npragma solidity ^0.8.20;\r\n\r\nimport \"./GreenEnergyToken.sol\";\r\nimport \"@openzeppelin/contracts/access/Ownable.sol\";\r\n\r\ncontract GreenEnergyCrowdsale is Ownable {\r\n    GreenEnergyToken public token;\r\n    uint256 public rate; // Tokens per Ether\r\n    uint256 public weiRaised;\r\n\r\n    event TokensPurchased(address indexed purchaser, uint256 value, uint256 amount);\r\n\r\n    constructor(uint256 _rate, address _wallet, GreenEnergyToken _token) Ownable(msg.sender) {\r\n        require(_rate > 0, \"Rate should be greater than 0\");\r\n        require(_wallet != address(0), \"Wallet address should not be zero\");\r\n        require(address(_token) != address(0), \"Token address should not be zero\");\r\n\r\n        rate = _rate;\r\n        token = _token;\r\n        transferOwnership(_wallet);\r\n    }\r\n\r\n    function buyTokens() public payable {\r\n        uint256 weiAmount = msg.value;\r\n        require(weiAmount > 0, \"You need to send some ether\");\r\n\r\n        uint256 tokens = _getTokenAmount(weiAmount);\r\n\r\n        weiRaised += weiAmount;\r\n\r\n        token.mint(msg.sender, tokens);\r\n        emit TokensPurchased(msg.sender, weiAmount, tokens);\r\n\r\n        payable(owner()).transfer(msg.value);\r\n    }\r\n\r\n    function _getTokenAmount(uint256 weiAmount) internal view returns (uint256) {\r\n        return weiAmount * rate;\r\n    }\r\n\r\n    function setRate(uint256 newRate) public onlyOwner {\r\n        rate = newRate;\r\n    }\r\n\r\n    function withdrawTokens(uint256 amount) public onlyOwner {\r\n        token.transfer(owner(), amount);\r\n    }\r\n}\r\n",
  "sourcePath": "D:\\ours\\projects\\dev\\TokenExample\\contracts\\GreenEnergyCrowdsale.sol",
  "compiler": {
    "name": "solc",
    "version": "0.8.20+commit.a1b79de6.Emscripten.clang"
  },
  "schemaVersion": "3.4.16",
  "updatedAt": "2024-06-27T11:30:54.771Z",
  "networkType": "ethereum",
  "devdoc": {
    "errors": {
      "OwnableInvalidOwner(address)": [
        {
          "details": "The owner is not a valid owner account. (eg. `address(0)`)"
        }
      ],
      "OwnableUnauthorizedAccount(address)": [
        {
          "details": "The caller account is not authorized to perform an operation."
        }
      ]
    },
    "kind": "dev",
    "methods": {
      "owner()": {
        "details": "Returns the address of the current owner."
      },
      "renounceOwnership()": {
        "details": "Leaves the contract without owner. It will not be possible to call `onlyOwner` functions. Can only be called by the current owner. NOTE: Renouncing ownership will leave the contract without an owner, thereby disabling any functionality that is only available to the owner."
      },
      "transferOwnership(address)": {
        "details": "Transfers ownership of the contract to a new account (`newOwner`). Can only be called by the current owner."
      }
    },
    "version": 1
  },
  "userdoc": {
    "kind": "user",
    "methods": {},
    "version": 1
  }
}